S31508000000682400203902000841020008430200085B
S3150800001045020008470200084902000800000000DF
S315080000200000000000000000000000004B0200086D
S315080000304D020008000000004F0200083132000897
S315080000405102000851020008510200085102000836
S315080000505102000851020008510200085102000826
S315080000605102000851020008510200085102000816
S315080000705102000851020008510200085102000806
S3150800008051020008510200085102000851020008F6
S3150800009051020008510200085102000851020008E6
S315080000A051020008510200085102000851020008D6
S315080000B051020008510200085102000851020008C6
S315080000C051020008510200085102000851020008B6
S315080000D051020008510200085102000851020008A6
S315080000E05102000851020008510200085102000896
S315080000F05102000851020008510200085102000886
S315080001005102000851020008510200085102000875
S315080001105102000851020008510200085102000865
S315080001205102000851020008510200085102000855
S3150800013051020008000000000000000051020008FB
S315080001405102000851020008510200085102000835
S315080001505102000851020008510200085102000825
S315080001605102000851020008510200085102000815
S3150800017051020008510200080000000000000000BB
S31508000180510200085102000800F002F800F045F894
S315080001900AA090E8000C82448344AAF10107DA45D4
S315080001A001D100F03AF8AFF2090EBAE80F0013F0E1
S315080001B0010F18BFFB1A43F0010318477C750000AE
S315080001C09C750000103A24BF78C878C1FAD852073F
S315080001D024BF30C830C144BF04680C6070470000B3
S315080001E00023002400250026103A28BF78C1FBD832
S315080001F0520728BF30C148BF0B6070471FB507F0CC
S3150800020009F800F0ADF804000020002106F0ECFF24
S31508000210401C60601FBD10B510BD00F0E9F811461E
S31508000220FFF7ECFF06F05BFC00F007F903B4FFF7F5
S31508000230F2FF03BC00F00AF909488047094800475D
S31508000240FEE7FEE7FEE7FEE7FEE7FEE7FEE7FEE778
S31508000250FEE7000004480549054A064B70470000BA
S315080002601D33000889010008681A00206824002048
S31508000270681C0020681C002010B500F071F8001DED
S3150800028010BD00BF656F000010B50446FFF7F4FF08
S315080002900068005D000704D5DF2C02D0A4F1200019
S315080002A010BD204610BD10B5203AC0F00B80B1E84D
S315080002B01850203AA0E81850B1E81850A0E818508D
S315080002C0BFF4F5AF5FEA027C24BFB1E81850A0E896
S315080002D0185044BF18C918C0BDE810405FEA827CB0
S315080002E024BF51F8043B40F8043B08BF7047D207C7
S315080002F028BF31F8023B48BF11F8012B28BF20F868
S31508000300023B48BF00F8012B70474FF0000200B5CA
S31508000310134694469646203922BFA0E80C50A0E81A
S315080003200C50B1F12001BFF4F7AF090728BFA0E8C8
S315080003300C5048BF0CC05DF804EB890028BF40F894
S31508000340042B08BF704748BF20F8022B11F0804FD6
S3150800035018BF00F8012B70477047704770470000B8
S3150800036000487047241A002000487047041A0020E5
S315080003704FF0013C50F8042B51F8043B9A4221D126
S31508000380A2EB0C03934313EACC1317D150F8042BB2
S3150800039051F8043B9A4215D1A2EB0C03934313EA96
S315080003A0CC130BD150F8042B51F8043B9A4209D1CF
S315080003B0A2EB0C03934313EACC13DBD04FF00000F7
S315080003C0704700BFD01A01BAB1FA81F101F01801DD
S315080003D022FA01F0CB40C1F12001DBB2C0B2C01A4B
S315080003E02CFA01F3D11A914311EAC311E6D17047E9
S315080003F07546FFF7B9FFAE4605006946534620F035
S315080004000700854618B020B5FFF724FFBDE8204051
S315080004104FF000064FF000074FF000084FF0000BB2
S3150800042021F00701AC46ACE8C009ACE8C009ACE865
S31508000430C009ACE8C0098D46704710B50446AFF34D
S3150800044000802046BDE81040FFF7F0BE014918209D
S31508000450ABBEFEE726000200704700F0DEF9FCE7B7
S3150800046010B500F081F901281AD000F0FBFB00282E
S3150800047016D00C4C2078012812D102F079FFD4E965
S315080004800112114401F5FA71884209D3002020703F
S3150800049000F094FB002803D1BDE8104000F0D6B95F
S315080004A010BD0000C40000200148406870470000E5
S315080004B0C4000020044910B50120087000F006F8B1
S315080004C0BDE81040FFF7CCBFC400002010B5044CAF
S315080004D02078012802D102F04BFFA06010BD000071
S315080004E0C40000200149486070470000C40000208D
S315080004F010B500F096F900F08BF902F041FF02F012
S31508000500C5FC00F06FFB00F01BF9BDE81040FFF7D3
S31508000510D1BF10B500F081F902F04CFF00F0ECFCF9
S3150800052000F02AF9BDE81040FFF79ABF2DE9FF4110
S315080005300546984616460C46684602F065FB02993B
S315080005404FF47A70B1FBF0F1164A00234FF4806736
S3150800055002EB430C12F813009CF801C06044401CDF
S315080005606843B1FBF0FC00FB1C1CBCF1000F12D168
S31508000570B1FBF0F080B22080401EB8420BD212F8D0
S315080005801300307002EB4300417888F80010012010
S3150800059004B0BDE8F0815B1CDBB2122BD8D3002077
S315080005A0F6E700005E72000830B58DB00024ADF89D
S315080005B028408DF82C408DF830400CAB0BAA0AA9C0
S315080005C04FF4FA70FFF7B2FF18B9B5211BA0FFF771
S315080005D044FF25482349012501600476447684763C
S315080005E0C576047744778460C4609DF82C10491E4C
S315080005F0090401619DF830100905A1F580114161D2
S31508000600BDF82810416001F0E3F94CF6E040059486
S31508000610CDE90645CDE900044FF6E07002900420C6
S31508000620CDE903040E20CDE9085069460E4801F0CD
S31508000630D5F80D4801F069FA0DB030BD2E2E5C2EA6
S315080006402E5C2E2E5C2E2E5C536F757263655C4194
S31508000650524D434D345F53544D333246345C6361D7
S315080006606E2E6300006400403810002070B588B014
S315080006700E460024034640F267656A462146074847
S3150800068001F032F938B90098A84204D1029810B995
S3150800069004980124307008B0204670BD3810002038
S315080006A010B588B040F2E173009300230293CDE9B8
S315080006B00331024606AB69460B4801F021F80028CB
S315080006C010D102F055FE00F1320405E000F0A5F85D
S315080006D002F04EFEA04205D80348069901F005FA35
S315080006E00028F3D108B010BD3810002004F086B9F0
S315080006F00848007828B1012805D0022805D0032823
S3150800070005D040207047082070473F2070470020DA
S3150800071070470000D00000200848007828B101285A
S3150800072005D0022805D0032805D0402070470820A8
S3150800073070473F207047002070470000D000002017
S3150800074010B504F039FBFFF72FFF064C0120207087
S3150800075002F0C0FC0020207004F060F9022020702E
S3150800076010BD0000D000002010B5002404F032FBB4
S3150800077000B10124204610BD38B569461348FFF775
S3150800078075FF134C012805D120709DF800100F48FD
S3150800079004F028FB69460D4802F0C8FC012806D17A
S315080007A0002020709DF80010084804F01BFB6946DD
S315080007B0064804F0A7F9012806D1022020709DF802
S315080007C00010024804F00EFB38BD00009009002016
S315080007D0D000002070B50D4D06460C462878012835
S315080007E003D1E1B23046FFF75BFF287818B9E1B2CA
S315080007F0304602F0EFFC2878022803D1E1B23046F1
S3150800080004F004FABDE8704004F0ECBBD000002008
S31508000810AFF30080642002F003BBAFF3008002F060
S3150800082005BBAFF3008072B6704762B6704770B505
S3150800083016460D46044605E015F8010B04F8010BAB
S31508000840FFF7EBFF761EB6B2F6D270BD10B502F012
S315080008501FFB002818D000F01DF8002814D0FFF759
S3150800086045FF01F07DF902F09DFD02F00DFB0749F9
S3150800087008400749086002F007FB4468FFF7D5FF00
S31508000880A446BDE81040604710BD000080FFFF1F6A
S3150800089008ED00E0044910B509690120884302D033
S315080008A002F0B2FA012010BD00000240002229B170
S315080008B001291AD002291BD04FF440720E490B6841
S315080008C023F440730B600B6813430B600A6822F02D
S315080008D0F8020A600A68022303EBC00002430A60B2
S315080008E0086840F48030086070474FF48072E5E786
S315080008F04FF40072E2E70000103C0240134801681A
S3150800090089050FD5016821F400710160016841F479
S3150800091000610160016821F400610160016841F429
S3150800092000710160016849050FD5016821F48061ED
S315080009300160016841F480510160016821F4805129
S315080009400160016841F4806101607047003C024023
S3150800095008490A6822F440720A600A6842F00402EA
S315080009600A600A684FF4803343EA002002430A60AB
S3150800097070470000103C0240064A136823F440738F
S31508000980136013681360136843F001031360017062
S3150800099070470000103C0240084910B50C6824F462
S315080009A040740C600C6844F440740C600C6844F0A5
S315080009B001040C600260436010BD0000103C024058
S315080009C0074A136823F440731360136843F480736B
S315080009D01360136843F00103136001807047000039
S315080009E0103C0240074A136823F4407313601368E7
S315080009F043F400731360136843F001031360016046
S31508000A0070470000103C024017490868C20617489C
S31508000A1005D5C26942F01002C26110220A600A684E
S31508000A20920605D5C26942F00802C26120220A6010
S31508000A300A68520605D5C26942F00402C26140221C
S31508000A400A600A68120605D5C26942F00202C26146
S31508000A5080220A600A68920705D5C26942F0200218
S31508000A60C2610220086070470C3C0240FC0000206E
S31508000A7070B5114904460020C86101F047F90546DA
S31508000A800E4E09E0601C07D024B101F03FF9401B67
S31508000A90A04201D9032070BD3068C003F2D4306883
S31508000AA0C00701D001203060306810F0F200F2D0A3
S31508000AB0FFF7AAFF012070BDFC0000200C3C024095
S31508000AC070B50E4890F82802012802D10B4805F0A7
S31508000AD02BF902F04DFC00F16404094D03E002F025
S31508000AE047FCA04204D82868C0F380100028F6D036
S31508000AF0BDE87040034805F0DFBB00001C0100207C
S31508000B000044004036720008044890F8280201287C
S31508000B1002D1024805F008B9704700001C01002000
S31508000B2070B5154D0446154E95F8280201281ED1B4
S31508000B302946204605F094FA002818DA002085F898
S31508000B402802284605F0F0F811E0706002F010FC63
S31508000B5000F10A0505E0FFF760FE02F009FCA8426D
S31508000B6004D83068C0F3C0100028F4D0641C20787C
S31508000B700028EAD170BD00001C0100200044004096
S31508000B8010B5074C00200A2284F8280205A1204641
S31508000B9005F0BEF9002802D1012084F8280210BD0C
S31508000BA01C0100202F626F6F746C6F672E74787447
S31508000BB000000000004870473672000810B5FFF7BD
S31508000BC0D3FD012806D0064C207818B900F030F875
S31508000BD0012801D0002010BD0120207010BD0000A2
S31508000BE0D4000020084910B500200870024607A165
S31508000BF0074805F067F9002805D0BDE810407721B9
S31508000C0004A0FFF72ABC10BDD4000020303A00002B
S31508000C10D00900202E2E5C2E2E5C2E2E5C2E2E5CED
S31508000C20536F757263655C66696C652E63000000B8
S31508000C3000B5C7B04FF48C716846FFF766FB694686
S31508000C40074805F0CDFA40B9009830B19DF808007C
S31508000C50C00602D4012047B000BD0020FBE7000013
S31508000C60367200080348007808B100207047012052
S31508000C7070470000D4000020014600F00F0010B5B0
S31508000C803030092901D9C01D10BDFFF7FDFAC0B2E1
S31508000C9010BD70B505460C460009FFF7EDFF20703C
S31508000CA005F00F00FFF7E8FF60700020A0702046EF
S31508000CB070BD70B5002506462C46305DFFF7E4FA90
S31508000CC0C0B2A0F13001172902D23A38072801D25A
S31508000CD0002070BDC9B2092901D9C91FC9B2641C4F
S31508000CE001EB0510E4B2C5B2022CE6D3284670BD66
S31508000CF002460A23B2FBF3F2491C002AFAD10A700B
S31508000D00B0FBF3F203FB1202B0FBF3F0303201F84A
S31508000D10012D0028F4D10846704710B5044600781E
S31508000D20FFF7B2FA53280CD1FFF7A6FA01686078E4
S31508000D30095C202905D1312805D0322805D0332869
S31508000D4005D0032010BD002010BD012010BD0220D3
S31508000D5010BD00002DE9F04116460C0007464FF07D
S31508000D60000500D027B940F263214DA0FFF775FBB7
S31508000D703846FFF7D2FF804603280CD0384600F0E5
S31508000D809DF858B15FEA08000BD001282BD0B8F1BE
S31508000D90020F27D150E00020BDE8F0814FF0FF3068
S31508000DA0FAE7BF1C3846FFF784FF0546BF1C3846DE
S31508000DB0FFF77FFF0002BF1C20603846FFF779FF68
S31508000DC02168ED1E0844BF1C2060002E65D0002453
S31508000DD006E03846FFF76DFF3055641CA4B2BF1C09
S31508000DE0AC42F6DB59E0BF1C3846FFF762FF054602
S31508000DF0BF1C3846FFF75DFF0004BF1C206038465D
S31508000E00FFF757FF2168BF1C01EB0020206038461A
S31508000E10FFF74FFF21682D1F0844BF1C206096B3BB
S31508000E20002406E03846FFF744FF3055641CA4B298
S31508000E30BF1CAC42F6DB30E0BF1C3846FFF739FF73
S31508000E400546BF1C3846FFF734FF0006BF1C206066
S31508000E503846FFF72EFF2168BF1C01EB00402060D3
S31508000E603846FFF726FF2168BF1C01EB00202060EB
S31508000E703846FFF71EFF21686D1F0844BF1C206017
S31508000E800EB1002407E008E03846FFF712FF305598
S31508000E90641CA4B2BF1CAC42F6DB28467CE7000003
S31508000EA02E2E5C2E2E5C2E2E5C2E2E5C536F7572AB
S31508000EB063655C66696C652E6300000070B5861C08
S31508000EC03046FFF7F6FE04462546B61C3046FFF7C1
S31508000ED0F0FE641E2844A4B2B61CC5B2012CF5D88F
S31508000EE0E843C4B23046FFF7E4FEA04201D0002032
S31508000EF070BD012070BD00002DE9FC5FCC4E307836
S31508000F00002875D00024DFF82CA306F10408012870
S31508000F101DD00AF50A7707F5C0724FF4807107F5F8
S31508000F20C279A7F58B65009202283AD003285FD1CB
S31508000F305246384604F007FF95F84112AB46002999
S31508000F407DD03470BCA0FFF7EBFD022068E101F00C
S31508000F509DFFFFF715FEC1A0FFF7E2FDC8A0FFF74A
S31508000F60DFFDFFF727FE01460122504604F0D0FFB9
S31508000F7040B13470CCA0FFF7D3FDBDE8FC5F01207B
S31508000F80FFF7C2BDCAA0FFF7CBFDCBA0FFF7C8FD90
S31508000F90D2A0FFF7C5FDC8F800400220C8F80440F3
S31508000FA0C3E05246D94804F0CEFE95F84112AB4646
S31508000FB011B13470BCA0C6E7002865D00022D3481A
S31508000FC00099FFF7C7FE0546401C12D0002D5BDDD1
S31508000FD0D8F80400414678B1D8F800100A18CB4969
S31508000FE0D1F880118A420DD12844C8F804004BE094
S31508000FF09CE03470ACA004E1D7F880010860C8F81A
S31508001000045041E0AAA0FFF78BFDC1A0FFF788FDB9
S315080010104746C249D8F80400FFF76AFEBF48FFF7FB
S315080010207FFDBFA0FFF77CFD3868BC49000EFFF7BF
S3150800103030FE386809F10201C0F3074000E077E0A6
S31508001040FFF727FE388809F10401C0F30720FFF7E8
S3150800105020FE387809F10601FFF71BFEAF48FFF7B7
S315080010605FFDA9A0FFF75CFDD7E9000101F00AFFC3
S31508001070D8B18FA0FFF754FD98A0FFF751FDA348FC
S31508001080D0F88001C7E90005DBF84412DBF83C021A
S3150800109081424BD10021504604F079FE58B1347094
S315080010A081A0FFF73DFD0420BAE034707EA0FFF76B
S315080010B037FD0520B4E0D8F80400454688B37CA07F
S315080010C0FFF72EFD92A0FFF72BFD94496868FFF7FE
S315080010D00FFE9248FFF724FD91A0FFF721FD28682F
S315080010E08E49000EFFF7D5FD28684F46C0F3074026
S315080010F0B91CFFF7CEFD2888391DC0F30720FFF776
S31508001100C8FD2878B91DFFF7C4FD8448FFF708FD18
S315080011107DA0FFF705FDD5E9000101F0B3FE002823
S31508001120C3D063A0FFF7FCFC03203070BDE8FC9F2A
S31508001130F0B37A4A7548843A01920099FFF70AFE95
S315080011400546401C5BD0002D3ADD7CA0FFF7E8FC85
S3150800115072492846FFF7CCFD7048FFF7E1FC7BA0F3
S31508001160FFF7DEFCD7F880016C49000E07F5C0775B
S31508001170FFF78FFD3868C846C0F3074009F102013A
S31508001180FFF787FD388808F10401C0F30720FFF749
S3150800119080FD387808F10601FFF77BFD5F48FFF709
S315080011A0BFFC59A0FFF7BCFC38682946019A00E045
S315080011B006E001F06FFE002827D03DA0FFF7B0FC3F
S315080011C0DBF84412DBF83C028142AFD165A0FFF799
S315080011D0A7FC01F04DFEF0B135A0FFF7A1FC68A011
S315080011E0FFF79EFC504604F09FFD6BA0FFF798FCA6
S315080011F03470FFF765FCBDE8FC5FFFF727BB34706A
S3150800120070A0FFF78DFC03200AE0347026A0FFF7D4
S3150800121087FC062004E0347023A0FFF781FC072032
S31508001220FFF772FC5046BDE8FC5F04F07DBD000088
S31508001230D4000020000C002052656164696E6720A6
S315080012406C696E652066726F6D2066696C652E2EF8
S315080012502E4552524F520A0D000000004669726D23
S315080012607761726520757064617465207265717541
S315080012706573742064657465637465640A0D00009B
S315080012804F70656E696E67206669726D7761726503
S315080012902066696C6520666F722072656164696E86
S315080012A0672E2E2E000000004552524F520A0D009E
S315080012B04F4B0A0D000000005374617274696E6723
S315080012C0207468652070726F6772616D6D696E67EC
S315080012D02073657175656E63650A0D0050617273DA
S315080012E0696E67206669726D776172652066696CDA
S315080012F06520746F20646574656374206572617314
S315080013006520626C6F636B732E2E2E00280E0020EC
S3150800131045726173696E672000000000AC0F0020FB
S315080013202062797465732066726F6D206D656D6FC6
S3150800133072792061742030780000000050726F675F
S3150800134072616D6D696E6720000000002062797415
S31508001350657320746F206D656D6F727920617420D6
S315080013603078000057726974696E672070726F670B
S3150800137072616D20636865636B73756D2E2E2E0022
S31508001380436C6F73696E67206669726D7761726503
S315080013902066696C650A0D004669726D776172652B
S315080013A0207570646174652073756363657373660D
S315080013B0756C6C7920636F6D706C657465640A0D65
S315080013C000000000496E76616C6964206368656395
S315080013D06B73756D20666F756E642E2E2E45525290
S315080013E04F520A0D000000002DE9F0470446006838
S315080013F04FEA51281F4616460D464FEA4828401C14
S3150800140005D14146204600F0BBF8002825D02168C2
S315080014104046414505D00146204600F0C1F8040083
S315080014201DD020684FF40079281A051908F50078A8
S315080014302D1DFFF7F2F9281B001F484506D3414624
S31508001440204600F0ADF8040009D0251D16F8010B5A
S3150800145005F8010B7F1EECD10120BDE8F0870020BE
S31508001460FBE700000A4810B50068401C04D008488D
S3150800147000F0FCF8002809D006480068401C04D093
S31508001480044800F0F3F8002800D0012010BD000041
S31508001490641200206010002070B506461E480D46EE
S315080014A0811B681E86B0814218D3304600F036F894
S315080014B004467019401E00F031F8FF2C0ED0FF28A4
S315080014C00CD00646002001250590B44200D9002517
S315080014D0022C01D30B2E04D900251BE0002006B0F0
S315080014E070BDBDB10090022004900120039000F069
S315080014F0F7FB0BE0FFF791F905A96846029400F09F
S315080015005BFB08B1002503E0641CE4B2B442F1D9E0
S3150800151000F09EFB2846E2E7FFFF0F082DE9F041A1
S315080015200546FF2700240E4EFFF777F904EB440023
S3150800153056F82010A9420BD806EB800040680844EC
S31508001540A84205D904EB440006EB8000077A03E0BD
S31508001550641CE4B20A2CE7D33846BDE8F0810000E3
S3150800156084720008004870470080000803494FF05D
S31508001570FF30086001F501710860704760100020AF
S3150800158010B5CA0501D0002010BD02688A4204D0F1
S3150800159002C04FF40072FFF74AF9012010BD00009F
S315080015A070B504460C480D46844202D1A0F5017474
S315080015B00AE00A48854202D1074C054604E020465F
S315080015C000F054F8002806D029462046FFF7D8FF31
S315080015D0002800D0204670BD641200200080000854
S315080015E00A48D0E90012114482681144C2681144BD
S315080015F002691144426911448269D0F8880111448C
S31508001600C84201D1012070470020704700800008B9
S3150800161070B5044611480D46011B681E16468142E0
S3150800162014D32046FFF77AFFFF280FD06019401E13
S31508001630FFF774FFFF2809D0600A0949400288426B
S315080016402B463246214603D1064802E0002070BDEB
S315080016500548BDE87040FFF7C7BE0000FFFF0F084A
S315080016600080000864120020601000202DE9F04177
S3150800167007464FF0010800F033FB0024386800EBFA
S31508001680840607EB84004568FFF7C7F82A46002357
S315080016903146022000F0E6FA10B14FF0000805E0E6
S315080016A03068A842F9D1641C802CE7D300F0D0FA40
S315080016B04046BDE8F081000008B5002000900E48BD
S315080016C00168491C15D0D0E901121144C2681144B9
S315080016D002691144426911448269C0691144084487
S315080016E0C043401C00906A4604210448FFF790FF57
S315080016F008BD012008BD000064120020888100088A
S31508001700F0B590F820500468A468012D05D0022D84
S3150800171003D0416A41F480215DE014F0406F01D1A5
S31508001720E50055D5C4F30164022C03D9416A41F496
S31508001730000150E00125A5401D608B684FF4C07577
S315080017409BB1CE6833434E6843EAC603066805EB89
S315080017500417F3514FF4C273076803EB04130E69B9
S31508001760FE50097D012905D009E00E88CB6843EAB9
S315080017704653EBE70168CE5846F48076CE50117989
S31508001780D379567941EA036193791B0443EA062320
S3150800179019434FF4C676036806EB04169951117877
S315080017A0D37841EA0361937852781B0443EA02220C
S315080017B011434FF4C473026803EB0413D150006855
S315080017C005EB0411425842F0010242500020F0BDD8
S315080017D0416A41F4001141620120F0BD10B590F84C
S315080017E02020012A07D0022A05D0416A41F4802127
S315080017F04162012010BD3B48D0F8002242F00102A8
S31508001800C0F80022D0F8002222F47C52C0F8002248
S31508001810D0F800224B6A42EA0322C0F800220A7D69
S3150800182002F01F0301229A40D0F81C329343C0F8F5
S315080018301C32CB69B3B9D0F80C329343C0F80C32DA
S315080018408C894B6864F31F434C6900EBC404C4F8E5
S3150800185040320C890B6864F31F434C6900EBC404DF
S31508001860C4F84432CB69012B16D1D0F80C32134395
S31508001870C0F80C320C884B6864F31F434C6900EBC4
S31508001880C404C4F840320C89CB6864F31F434C691E
S3150800189000EBC404C4F844328B69002BD0F8043238
S315080018A00ED01343C0F804320B69002BD0F814325B
S315080018B008D01343C0F81432096A012904D008E095
S315080018C09343EFE79343F5E7D0F81C121143C0F8AA
S315080018D01C12D0F8001221F00101C0F800120020F5
S315080018E010BD00000064004030B590F82040012C7F
S315080018F005D0022C03D0416A41F480215DE00468DA
S31508001900002955D02469A40754D04FF4D874056823
S3150800191004EB01142D5915F00405956005682D5939
S315080019204ED0ED08556005682C59C4F34004D460C0
S315080019304FF4DA74056804EB01142D5905F00F0508
S31508001940156105682D59C5F30725956105682C5954
S31508001950240C54614FF4DC72046802EB0112A4589B
S315080019601C700468A458240A5C700468A458240CE3
S315080019709C700468A258120EDA704FF4DE7204687E
S3150800198002EB0112A4581C710468A458240A5C715D
S315080019900468A458240C9C710468A258120EDA71C3
S315080019A0006881B1016941F020010161002030BD64
S315080019B0E468A8E7416A41F400114162012030BD9C
S315080019C06D0D1560AFE7C16841F02001C160EDE714
S315080019D070B5040003D094F8200010B104E001208B
S315080019E070BD204600F090F82068016821F00201D9
S315080019F0016000F08BF90546052604E000F086F93B
S31508001A00401B0A2811D8206840688007F6D4206849
S31508001A10016841F00101016000F078F905460BE024
S31508001A2000F074F9401B0A2806D9606A40F40030B1
S31508001A30606284F82060D2E720684068C007EFD06B
S31508001A40207E0128206801683DD021F080010160D0
S31508001A50607E01282068016838D021F040010160C5
S31508001A60A07E01282068016833D021F0200101609A
S31508001A70E07E0128206801682ED041F0100101603F
S31508001A80207F01282068016829D021F0080101601B
S31508001A90607F01282068016824D021F004010160D4
S31508001AA0D4E902010843D4E90412114308436168E2
S31508001AB0491E08432168C86100206062012084F835
S31508001AC02000002070BD41F08001C0E741F04001D0
S31508001AD0C5E741F02001CAE721F01001CFE741F040
S31508001AE00801D4E741F00401D9E70346002093F83A
S31508001AF02020012A01D0022A05D11A68890692688F
S31508001B00914300D001207047704770B5044690F89D
S31508001B102000012804D0606A40F40020606217E0C3
S31508001B20022084F820002068016821F00101016084
S31508001B3000F0ECF805460DE000F0E8F8401B0A282E
S31508001B4008D9606A40F400306062052084F82000F5
S31508001B50012070BD20684068C007EDD1606270BD85
S31508001B600B4A10B54FF0FF30106000211160121DAE
S31508001B7010601160064A103A10601160121D10605C
S31508001B801160121D1060116000F0FCF8002010BDF5
S31508001B902038024070B5044600F0B8F80546601CC7
S31508001BA002D004480078044400F0B0F8401BA04274
S31508001BB0FAD370BD0C0000202DE9F04704462248F0
S31508001BC00E46017E01290AD00121804601764CF293
S31508001BD050394846FEF74CFF020003D02FE002209A
S31508001BE0BDE8F0874FF0FF3030602068174F0128B6
S31508001BF001D0A5681CE0207C6168FEF7A9FE48466E
S31508001C00FEF736FF0246386820F00400386014E014
S31508001C10217C2846FEF74AFE4846FEF729FF0200C1
S31508001C20386820F0FA00386001D0356005E06D1C90
S31508001C30D4E902100844A842EAD8FEF75FFE00215C
S31508001C4088F818101046CBE7FC000020103C02402C
S31508001C500348016841F00041016000207047000018
S31508001C60103C02402DE9F0471B4E05461446307ECF
S31508001C701F468946012808D0012030764CF2503894
S31508001C804046FEF7F5FE18B114E00220BDE8F087DD
S31508001C909DB1012D16D0022D19D022463B46484645
S31508001CA0FEF77AFE4046FEF7E3FE0C490A6822F084
S31508001CB001020A6000213176E8E7E1B24846FEF7FC
S31508001CC05BFEEFE7A1B24846FEF77AFEEAE7214651
S31508001CD04846FEF787FEE5E7FC000020103C024078
S31508001CE0074900200A68002A09DA054A054B0C3A12
S31508001CF01360054B13600968002900DA0120704754
S31508001D00103C024023016745AB89EFCD01F030BB9B
S31508001D100B4810B5016841F400710160016841F48F
S31508001D2080610160016841F480710160032000F060
S31508001D3005F9002000F006F800F062F8002010BD52
S31508001D40003C024070B50D4D04464FF47A71287870
S31508001D50B1FBF0F00A490968B1FBF0F000F0D6FDD6
S31508001D6048B9102C07D200222146501E00F0C6F8AA
S31508001D7000206C6070BD012070BD00000C000020C2
S31508001D801800002010B500F0F5FE1848016821F08B
S31508001D9080010160164800F0FDFD164800F0FAFDC6
S31508001DA0154800F0F7FD154800F0F4FD0F4C0C340B
S31508001DB0206820F000702060206820F40030206041
S31508001DC0082000F0B7FD042000F0B4FD022000F062
S31508001DD0B1FD012000F0AEFD206820F080502060A3
S31508001DE0201D016821F48041016010BD343802408D
S31508001DF0000C0240000802400004024000000240B5
S31508001E002DE9F041384888B0016841F48041016005
S31508001E10006800F4804006904FF0805000F0AEFD58
S31508001E20012000F08FFD022000F08CFD042000F058
S31508001E3089FD082000F086FD4FF4003000F09EFD75
S31508001E404FF0007000F09AFD4FF4805601250024EB
S31508001E500096CDE90154254F039469463846049403
S31508001E6000F0FAFDBE61224F6946384600F0F4FDDF
S31508001E70BE61CDE90054DFF87C806946404604948B
S31508001E8000F0EAFD0C200226032703948DE8C10022
S31508001E900720CDE904506946404600F0DDFD3802CA
S31508001EA0CDE900060920CDE90440CDE9027469466A
S31508001EB0114800F0D1FDF802CDE900060A20CDE967
S31508001EC00440CDE902746946404600F0C5FD06485F
S31508001ED01038016841F080010160006800F0800058
S31508001EE0069008B0BDE8F081443802400008024078
S31508001EF0000C02400000024000040240F0B40E4B01
S31508001F001B68C3F30223C3F10704042C00D9042475
S31508001F101D1D072D01D2002300E0DB1E012606FA4F
S31508001F2004F56D1E0D409D409E40761E164045EAFE
S31508001F300601F0BC03F068B80CED00E0064A00F0B4
S31508001F40070110684FF6FF03184040EA01200349CD
S31508001F5008431060704700000CED00E00000FA0529
S31508001F6070470068416200207047F0B50368586AF8
S31508001F7039B19C6A4FF4827500EB144400204E1E5A
S31508001F800AE040EA024098620FE005EB8007DF5955
S31508001F90401C04EB1744C0B2B042F6D344EA0240F0
S31508001FA04FF4807202EB810158500020F0BD10B545
S31508001FB00446012002F064FCD4F80404BDE810408D
S31508001FC001F0A2BCC1EBC10200EB8202D0F8040406
S31508001FD0926C01F0FFBBC1EBC10200EB8202D0F8A4
S31508001FE00404D2F8082201F04ABC10B504000CD04B
S31508001FF0032084F8BD03204600F049FC204600F083
S31508002000EAFB002084F8BD0310BD012010BD10B501
S315080020100446006894F8BC13012906D0012184F807
S31508002020BC13A16A012902D008E0022010BDA169EB
S31508002030012903D0816B41F480318163206801F066
S31508002040F7FF002084F8BC0310BD10B5044690F8CD
S31508002050BC03012809D0012084F8BC03206801F0DC
S31508002060F3FF002084F8BC0310BD022010BD10B594
S315080020700446002002F004FCD4F80404BDE810402D
S3150800208001F044BC70B504460B0601F00F00C0EB26
S31508002090C00104EB81014FF001024FF0000503D5A2
S315080020A081F83D203C3103E081F8FD5101F5FE71D0
S315080020B0087094F8BC03012808D084F8BC2320686B
S315080020C001F076FF84F8BC53002070BD022070BD75
S315080020D070B5044601F00F006268904201D90120EC
S315080020E070BD0B0601F00F01C1EBC10104EB8101C4
S315080020F04FF001024FF0000503D581F83D203C3131
S3150800210003E081F8FD5101F5FE718D70087094F8B1
S31508002110BC03012808D084F8BC23206802F022F901
S3150800212084F8BC53002070BD022070BD01F00F0179
S31508002130C1EBC10100EB8100D0F8140270472DE90C
S31508002140F04104460F0601F00F00C0EBC00104EB96
S3150800215081014FF001064FF0000503D581F83D6077
S315080021603C3103E081F8FD5101F5FE7108708A6083
S31508002170CB704A7802B1C880022B00D10D7194F851
S31508002180BC03012809D084F8BC63206801F062FE0C
S31508002190284684F8BC53BDE8F0810220FBE770B5F9
S315080021A00D4601F00F04C4EBC40100EB8101C1F830
S315080021B01032C1F808220023C1F8143281F8FD3123
S315080021C081F8FC41036901F5FE71012B00D10A6112
S315080021D02A07027C006803D002F01CF9002070BDB3
S315080021E002F008F8FAE770B504460D4601F00F004C
S315080021F06168884201D9012070BD29064FF00006A2
S315080022004FF0010207D5C0EBC00104EB810181F84C
S315080022103D203C3107E0C5EBC50104EB810181F89F
S31508002220FD6101F5FE718A70087094F8BC030128F7
S3150800223007D084F8BC23206802F0C0F8280702D02B
S3150800224007E0022070BD217C04F57172206802F057
S315080022505DF884F8BC63002070BD70B50D4601F0CA
S315080022600F04C4EBC40100EB81010B658A640023EB
S315080022704B65012381F83D3001F83C4F0369012B7A
S3150800228000D10A612A07027C006803D002F0C2F86E
S31508002290002070BD01F0AEFFFAE700002DE9F84F07
S315080022A005680446284602F0DCF900287ED1206835
S315080022B002F003FA002879D0206802F0FEF98007B8
S315080022C004D52068416901F002014161206802F0E5
S315080022D0F4F9010304F5717000906CD500262068A6
S315080022E002F0CAF980464FF4004ADFF8F0B35CE022
S315080022F05FEAC87056D0F1B2206802F0D6F90746F0
S31508002300C00708D005EB46110120C1F8080B314675
S31508002310204600F0C1FD380726D52068D0F8409041
S3150800232000EB4610D0F8081B2269012A0FD0EC4BA7
S31508002330994503D1090401D5C0F808AB204600F039
S315080023407EFAD9450BD92069012803D007E0D9457B
S31508002350F0D8F3E720680121009A01F0D7FF05EBD2
S3150800236046110820C1F8080BF80604D505EB4611F6
S315080023701020C1F8080BB8060CD52069012804D12D
S3150800238020680121009A01F0C1FF05EB46102021C3
S31508002390C0F8081BB80405D505EB46104FF40051E4
S315080023A0C0F8081B4FEA5808761C01E093E102E0E2
S315080023B0B8F1000F9CD1206802F07FF940034FF076
S315080023C000095FD5206802F050F98046002656E0DD
S315080023D05FEAC87050D0F1B2206802F054F9074697
S315080023E0C00727D006F00F01012202FA01F0D5F83E
S315080023F034188143C5F8341805EB4610C0F8082987
S315080024002069012807D1C6EBC60004EB8000D0E995
S31508002410112111448164F1B22046FFF7D3FD2069EA
S31508002420012807D136B9206D20B920680121009A04
S3150800243001F06CFF380704D505EB46110820C1F8F2
S315080024400809F80604D505EB46111020C1F8080955
S31508002450780604D505EB46104021C0F80819B807D8
S3150800246004D505EB46100221C0F80819380603D52D
S315080024703146204600F07CFD4FEA5808761CB8F134
S31508002480000FA5D1206802F018F9002811DAD5F84E
S31508002490040820F00101C5F8041894F8F40301288B
S315080024A02BD0204600F0A9F92068416901F00041C7
S315080024B04161206802F001F900050BD5D5F8080836
S315080024C0C00702D0204600F001FA2068416901F4ED
S315080024D000614161206802F0F0F8C00460D5D5F8C3
S315080024E0040820F00101C5F804181021206802F03C
S315080024F099F800214FF67F3219E084F8F493002109
S315080025002046FFF72DFDCFE705EB4110C0F8082957
S31508002510D0F8003923F40013C0F80039C0F8082BA6
S31508002520D0F8003B23F40013C0F8003B491C606850
S315080025308842E9D8D5F81C0840F00111C5F81C18DE
S31508002540206B002828460DD0D0F8840840F00B01EF
S31508002550C5F88418D5F8440840F00B012846C5F894
S3150800256044180DE0D0F8140842F22B010843C5F8C8
S315080025701408D5F8100840F00B012846C5F81018BD
S31508002580D0F8000820F4FE61C5F80018217C206800
S31508002590009A01F0BBFE2068416901F4805141614F
S315080025A0206802F08AF8800415D5206801F092FCAC
S315080025B0206802F049F8E06000F0A2F90146227BA3
S315080025C0206802F0B5F8204600F007F9206841694E
S315080025D001F400514161206802F06FF8C00634D555
S315080025E02068816921F0100181612F6A07F00F00C8
S315080025F0C0EBC00004EB8006C7F3434006F5FE7641
S31508002600022802D0062811D01AE047F6F0700742D1
S3150800261016D0C7F30A1217462846F16802F051F891
S31508002620F0683844F060B069384408E00822284663
S31508002630009902F046F8B069C7F30A110844B06178
S315080026402068816941F010018161206802F035F83F
S31508002650000707D5204600F0DAF82068416901F03E
S3150800266008014161206802F028F8C00208D5002157
S31508002670204600F037F82068416901F4801141616D
S31508002680206802F01AF8800208D50021204600F0DA
S315080026902DF82068416901F400114161206802F0B3
S315080026A00CF8400007D52046FFF781FC20684169F1
S315080026B001F080414161206801F0FFFF40070AD51B
S315080026C020684568680702D52046FFF7D0FC2068D1
S315080026D0416829434160BDE8F88F00000A30544F2D
S315080026E00A31544FD0F8040401F06CB9D0F8040448
S315080026F001F06AB92DE9F0418AB0040005D094F8D2
S31508002700BD032668002520B108E001200AB0BDE80F
S31508002710F08184F8BC53204600F05EF8032084F864
S31508002720BD03F06BC00500D42561206801F05CFD8F
S3150800273004F11001282288466846FDF7B4FD94E89E
S315080027400F0001F0E1FB0227C8BB0021206801F059
S31508002750C7FF002101260EE0C1EBC10004EB800093
S3150800276080F83D6000F83C1FC180C5708560C56073
S31508002770491CC9B2456160688842EDD8002111E05C
S31508002780C1EBC10004EB800080F8FD5180F8FC1114
S3150800279080F8FF51C0F80452C0F80852491CC9B263
S315080027A0C0F8105260688842EAD82822414668462E
S315080027B0FDF779FD94E80F0001F052FC10B184F89A
S315080027C0BD73A2E784F8385084F8BD63206801F029
S315080027D03BFC00209AE77047704710B50446C0686E
S315080027E0012100B90021D4F8040401F043F9D4F812
S315080027F00404BDE8104001F00CB910B5044602F017
S3150800280077F9D4F80404BDE8104001F021B9D0F8EE
S31508002810040401F023B910B5044690F8BC03012856
S315080028200BD0012084F8BC0384F83810206801F026
S315080028306EFF002084F8BC0310BD022010BDD0F83E
S31508002840042400F57171104601F027B910B5044645
S31508002850006894F8BC13012906D0012184F8BC133A
S31508002860A16A012902D008E0022010BDA169012948
S3150800287003D0816B41F480318163206801F0D8FB75
S31508002880206801F0B9FE002084F8BC0310BD70B5BD
S31508002890044690F8BC0301280ED0012084F8BC0336
S315080028A0206801F0A1FC206801F0B6FF002528B1D8
S315080028B084F8BC53012070BD022070BD206801F069
S315080028C0C3FB84F8BC53002070BD000010B5044655
S315080028D0D0F8040401F03EF92068D0F8001E41F053
S315080028E00101C0F8001E206A20B10448016841F0C1
S315080028F006010160BDE8104001F0F2BF10ED00E0EE
S3150800290001480068704700001800002010B5401EF6
S31508002910B0F1807F01D3012010BD4FF0E024606143
S315080029200F21601702F070FB0020A06107202061CC
S31508002930002010BD02490A6882430A6070470000F9
S3150800294030380240044908B50A6802430A60096833
S315080029500140009108BD00003038024002490A686B
S3150800296002430A60704700001038024002490A68AC
S3150800297082430A607047000010380240044908B5CF
S315080029800A6802430A6009680140009108BD000010
S315080029904038024070B527490024884204D10120F6
S315080029A0FFF7DCFF01203FE02349884204D10220DB
S315080029B0FFF7D4FF022037E02049884204D10420DB
S315080029C0FFF7CCFF04202FE01D49884204D10820D8
S315080029D0FFF7C4FF082027E01A49884204D11020CF
S315080029E0FFF7BCFF10201FE01749884204D12020BA
S315080029F0FFF7B4FF202017E01449884204D140208D
S31508002A00FFF7ACFF40200FE01149884204D180202F
S31508002A10FFF7A4FF802007E00E49884207D18515F5
S31508002A202846FFF79BFF2846FFF7A0FF00E0012492
S31508002A30204670BD00000240000402400008024023
S31508002A40000C024000100240001402400018024028
S31508002A50001C024000200240F0B50A68032492FADE
S31508002A60A2F2B2FA82F34FF00F0E70E001259D40F4
S31508002A702A406BD04D68066892FAA2F7B7FA87F72C
S31508002A804FEA470C04FA0CF7BE4392FAA2F7B7FAD4
S31508002A9087F77F00BD402E4306604D68012D01D0A3
S31508002AA0022D12D18D68866892FAA2F7B7FA87F7CF
S31508002AB04FEA470C04FA0CF7BE4392FAA2F7B7FAA4
S31508002AC087F77F00BD402E4386600D69C66892FA77
S31508002AD0A2F7B7FA87F77F0004FA07FC92FAA2F77B
S31508002AE0B7FA87F77F0026EA0C06BD402E43C66074
S31508002AF04D68022D2AD192FAA2F5B5FA85F5082D68
S31508002B004D6911D2066A92FAA2F7B7FA87F7BF009B
S31508002B100EFA07F792FAA2F2B2FA82F29200BE43CE
S31508002B2095402E43066211E0466A120A92FAA2F707
S31508002B30B7FA87F7BF000EFA07F792FAA2F2B2FAC7
S31508002B4082F29200BE4395402E4346625B1C0A6899
S31508002B5032FA03F58AD14A68012A01D0022A06D137
S31508002B600A68C968436893434A431343436000208D
S31508002B70F0BD0000204810B5016841F00101016070
S31508002B800168C1F340010029FAD01B4A0021083226
S31508002B9011601A490160016821F0F80141F08001CD
S31508002BA0016000F041F80028FBD113491448091DBB
S31508002BB0086011491348843108600F480C300168D1
S31508002BC021F4F8510160016821F40051016001689F
S31508002BD041F41F010160016841F4001101600648D3
S31508002BE07430016821F001010160016841F08071CB
S31508002BF00160002010BD000000380240FFFFF2FA15
S31508002C00103000240030002010B5044600F026FAE3
S31508002C10206000F0F9F9606000F004FAA0606068CE
S31508002C2000F00EFAE06010BD02480068C0F340608C
S31508002C30704700000038024010B503680122C3F34C
S31508002C4080132BBBD1E900231A43D1E9023423436D
S31508002C501A430B691A434B691A438B691A43CB69A2
S31508002C601A430B6A1A4303684FF6BF74A3431A4301
S31508002C70026042684B6922F0040242EA134242604B
S31508002C800A6AB2F5005F02D1898C89B20161002215
S31508002C90C16921F40061C161104610BD014908608F
S31508002CA070470000180000207FB50446C0680D462E
S31508002CB00126C0F34030C0BBE9686868AA690843C2
S31508002CC0296911430843E16849F20C6291430843B4
S31508002CD0E060A868216921F44051014321616869CF
S31508002CE0616921F44071014361616846FFF78CFF11
S31508002CF00F48844208D00F4884420DD00E488442BB
S31508002D000AD00E48844201D1039906E00C48844251
S31508002D1002D00C48844208D1029931B12B6823B1FC
S31508002D2000262046AA6900F00FF804B0304670BDA8
S31508002D3000100140004400400048004000140140D3
S31508002D40004C004000500040F0B56424322501EBE9
S31508002D50C10606EB0111B2F5004F2AD09A00B1FB65
S31508002D60F2F6B6FBF4F6B1FBF2F36FF018077E4302
S31508002D7003EB8603B1FBF2F605EB0313B3FBF4F39F
S31508002D80B6FBF4F603F0F00303EB0613B1FBF2F619
S31508002D90B1FBF2F1B1FBF4F1794306EB810105EBE6
S31508002DA00111B1FBF4F101F00F01194489B28160F8
S31508002DB0F0BD5A00B1FBF2F3B3FBF4F31E01B1FB0D
S31508002DC0F2F3B3FBF4F3B1FBF2F76FF0180C03FB65
S31508002DD00CF307EB830305EBC303B3FBF4F303F030
S31508002DE0F80306EB4303B1FBF2F6B1FBF2F1B1FBD4
S31508002DF0F4F101FB0CF106EB810105EBC101B1FB16
S31508002E00F4F101F00701D0E703494FF480508861D7
S31508002E10024988617047000000080240000C024021
S31508002E2001494880704700002000002010B500F0D6
S31508002E309FFA0C4C616888420ED323780A4A0B49DC
S31508002E404FF480504BB1002323709061886100F0E5
S31508002E508FFA61880844606010BD01202070000761
S31508002E60F3E700002000002000080240000C0240A2
S31508002E7010B5FEF721FC002803D0BDE81040FEF788
S31508002E80F1BA10BDFEF708BBFEF76CBBFEF76EBBCA
S31508002E90FEF7A6BBFEF7BCBB2DE9F0410546006868
S31508002EA00E46016C00EB4614D4F8080B2B694FF458
S31508002EB000424FF0200C012B07D02B4B99424CD1E6
S31508002EC0010446D5C4F8082B4BE0DFF8A0E0030759
S31508002ED005F5717711D5714503D9000401D5C4F8F4
S31508002EE0082B2846FFF7ABFC3A460121286801F073
S31508002EF00DFA0820C4F8080B33E0830602D5C4F897
S31508002F0008CB2EE010F0280F2BD1714501D900040B
S31508002F10D8D4C6EBC60005EB8000D4F8102BD0F841
S31508002F200412C2F312028A1AC0F81422D0F8082230
S31508002F301144C0F80812F1B22846FFF74CF886B9D2
S31508002F40D5F8100268B93A460121286801F0DEF979
S31508002F5007E0800601D5C4F808CBF1B22846FFF78A
S31508002F603AF80020BDE8F0810A31544F0A30544F30
S31508002F702DE9F84F0E46C1EBC60100EB81048146E8
S31508002F80D0F80080D4E914103C34884202D90120D4
S31508002F90BDE8F88F081AA168814200D20846C01C0D
S31508002FA0870808EB461A15E0451AA068A84200D219
S31508002FB00546E81C870899F810000090ABB2F2B2F3
S31508002FC04046E16801F049FCE0682844E060A069F1
S31508002FD02844A061DAF8180980B2B84205D3D4E9C2
S31508002FE00501814201D20028DED1D4E905018842D3
S31508002FF008D806F00F0101208840D8F83418814314
S31508003000C8F834180020C3E704490968044A01F0DF
S31508003010F0010909515CC8407047000008380240B1
S315080030201E72000804490968044A01F4E05102EBDB
S3150800303091210978C8407047083802402E72000866
S3150800304004490968044A01F4604102EB51310978E0
S31508003050C8407047083802402E72000807480068C2
S3150800306010F00C01064807D0042904D0082903D11A
S31508003070082000F009B803487047000008380240E5
S315080030800024F40000127A0010B5104B0446002004
S31508003090196811F480020E4903D0B2F5800F00D1E9
S315080030A04910082C11D1186800F03F00B1FBF0F068
S315080030B01968C1F3881148431968012201F440319F
S315080030C002EB11414900B0FBF1F010BD0438024093
S315080030D00024F40010B50D4C88B0E06820F40050C8
S315080030E0E06000214FF46140CDE900010C20029117
S315080030F0CDE903100591069169462046FFF7D4FDF0
S31508003100E06840F40050E06008B010BD004400409C
S3150800311005490A68C2F340121AB1496801700120CC
S315080031207047002070470000004400402DE9F04138
S315080031301B4C80461B4E60780F46002580B12078D0
S315080031403044401CFFF7E4FF012819D000F010F9BD
S3150800315061686431884200D965700020BDE8F08155
S315080031601048FFF7D5FF0128F7D13078401E3F28D1
S31508003170F3D800F0FDF86060257001206070ECE778
S315080031802078401CC2B2227030789042E5D1711C7A
S315080031904046FDF74CFB6570207838700120DDE766
S315080031A0E00000206814002070B5094D686000F042
S315080031B0DFF800F10A0405E0FDF72FFB00F0D8F868
S315080031C0A04204D82868C0F3C0100028F4D070BD07
S315080031D00044004070B50D460646402903D97B21B8
S315080031E008A0FDF73AF92846FFF7DEFF002406E0B7
S315080031F0FDF713FB305DFFF7D7FF641CA4B2AC42A2
S31508003200F6D370BD2E2E5C2E2E5C2E2E5C2E2E5CDA
S31508003210536F757263655C41524D434D345F535429
S315080032204D333246345C72733233322E63000000FB
S31508003230704700002E4810B5016821F00F0141F0D3
S3150800324005010160006800F00F00052803D06A2117
S3150800325028A0FDF702F92A48016841F48041016077
S315080032602848016841F4803101600168C1F3404192
S315080032700029FAD02349244A091D0B68234C234008
S315080032801A430A600A6822F440320A60204A0B6828
S31508003290204C23401A430A60016841F0807101609E
S315080032A00168C1F340610029FAD016480830016860
S315080032B021F0F0010160016821F4E05141F4A051C8
S315080032C00160016821F4604141F400410160016830
S315080032D021F0030141F002010160016801F00C01CF
S315080032E00829FAD1BDE810400B48FFF7D7BC000003
S315080032F0003C02402E2E5C6D61696E2E6300000054
S315080033000070004000380240085440000080BFFFAB
S31508003310085440070080BFF0007A030A1048016885
S3150800332041F4700101600F48016841F00101016034
S315080033300C4A00210832116002680B4B1A400260E1
S31508003340031D0A4A1A60026822F4802202600548B0
S315080033500C30016002495806803908607047000041
S3150800336088ED00E000380240FFFFF6FE103000242A
S3150800337000B500F01FF80148006800BDE80000200D
S3150800338000B500F00FF84FF0E02004494161002134
S315080033908161052202610248016000BD3F9002007A
S315080033A0E80000204FF0E0200021016141618161C1
S315080033B0704700004FF0E0200069C00303D50248BB
S315080033C00168491C01607047E800002010B501F04B
S315080033D055FC002010BD10B5084601F0CFFB0020B3
S315080033E010BD70B505460024812100F0E3F90121DE
S315080033F0284600F0DFF9204670BD00000A2101804A
S31508003400004870472C0000202021018000487047A2
S3150800341038000020004870474803002070B505466C
S31508003420002440230222812100F0D0FA4023022200
S315080034300121284600F0CAFA4023034A01212846FA
S3150800344000F0D7FA204670BD4803002010B590F862
S31508003450FC01032801D101F011FC002010BD000079
S3150800346070B50B781722164C13F0600F20D14B78E5
S31508003470062B04D00A2B11D00B2B19D112E04B883E
S315080034802125B5EB132F05D10D4CCA880934172A07
S3150800349000D91722214600F042F809E0084901221E
S315080034A01939F8E74A8812F0FF0F03D000F021F81F
S315080034B0002070BD0249D0B219390860F8E700004B
S315080034C04100002010B5D0F8142252689047002019
S315080034D010BD134610B50A46002100F08AFA0020EE
S315080034E010BD134610B50A46002100F03CFB00202B
S315080034F010BD10B50446802100F0FCFA2046BDE850
S315080035001040002100F0F6BA10B505210023C0F8D6
S31508003510F4111A46194600F06CFA002010BD10B5D1
S3150800352002238261C0F8F431C26113460A460021BB
S3150800353000F019FB002010BD10B504210023C0F8C7
S31508003540F4111A46194600F00EFB002010BD10B5FE
S315080035500446012084F8FC01D4F814022179426853
S3150800356020469047204600F0E5FA204600F0BCF9D0
S31508003570002010BD10B50A46024903A000F0D2F893
S31508003580004810BD9007002044656661756C74009C
S315080035901220088000487047B000002010B50A467F
S315080035A0024903A000F0BEF8004810BD90070020AD
S315080035B057696E5553422042756C6B20496E746587
S315080035C07266616365000000042008800048704741
S315080035D0AC00002010B50A46024903A000F0A2F884
S315080035E0004810BD900700204F70656E424C54206D
S315080035F0557365720000000010B50A46024903A01B
S3150800360000F090F8004810BD9007002057696E55E5
S3150800361053422042756C6B204465766963650000E9
S3150800362010B50A46024903A000F07CF8004810BD10
S31508003630900700203030303030303030303530436D
S3150800364000000000F8B5044648880D46010A082916
S315080036504BD2DFE801F04A0409174A4A4048D4F831
S315080036601012207C0A6832E0207C02260028D4F852
S31508003670140205D0C16A684688470146467041E08B
S31508003680816AF8E7C0B206282FD2DFE800F00308FF
S315080036900D12171CD4F81012207C4A6817E0D4F8CB
S315080036A01012207C8A6812E0D4F81012207CCA68AE
S315080036B00DE0D4F81012207C0A6908E0D4F810123C
S315080036C0207C4A6903E0D4F81012207C8A6969468E
S315080036D09047014616E0207C38B9D4F81402416BAD
S315080036E068468847F5E7207C20B129462046FFF73B
S315080036F000FFF8BDD4F81402016B684688470146F6
S3150800370007204870BDF800000028F2D0EA88002A91
S31508003710EFD0824200D90246ADF800202046FFF7D6
S31508003720FEFEF8BD70B5002300281DD0044600250E
S3150800373002E06D1CEDB2641C2678002EF9D1022435
S3150800374004EB45041480CC545B1C0322CA540024A1
S315080037505B1C06E0CA545B1CDAB28C54521CD3B20A
S31508003760401C0278002AF5D170BD10B580B1D0F89A
S31508003770143213B10023C0F8143209B1C0F810127C
S31508003780012180F8FC11027000F0D0F8002010BD6D
S31508003790022010BD10B50024D0F82002FEF798FCD0
S315080037A030B1012801D0022801D0022400E001240A
S315080037B0204610BD10B50024D0F82002FEF762FCA2
S315080037C030B1012801D0022801D0022400E00124EA
S315080037D0204610BD2DE9F0411746044641B1D4F8FC
S315080037E0140242698AB394F8FC01032842D043E0E4
S315080037F0D4F8F411002504F11400022933D1D0E9D4
S3150800380002639E4207D9F31A83609AB23946204664
S31508003810FFF767FE12E04068B0FBF3F103FB110106
S31508003820A1B9984212D3D4F8F81188420ED20022D0
S3150800383011462046FFF755FEC4F8F85100231A46EC
S315080038401946204600F0D5F80DE012E0D4F8140227
S31508003850C16829B194F8FC01032801D1204688479C
S315080038602046FFF751FE94F80002012804D184F897
S31508003870005201E0204690470020BDE8F08170B56F
S315080038801546044641B1D4F8140282693AB394F84D
S31508003890FC01032824D025E0D4F8F41104F582703D
S315080038A003291FD1D0E902318B420BD95B1A8360F9
S315080038B00846834200D303469AB229462046FFF7B4
S315080038C008FE0FE0D4F81402016929B194F8FC0146
S315080038D0032801D1204688472046FFF72DFE01E040
S315080038E020469047002070BD10B50024D0F820026D
S315080038F0FEF77BFB30B1012801D0022801D0022453
S3150800390000E00124204610BD0020704710B50121B3
S3150800391080F8FC11D0F814220179526890470020EB
S3150800392010BDD0F82002FEF701BC000010B50178E2
S3150800393061BB17490222C1F80404C0F820124FF0EF
S31508003940A0400860042048600020C1E90320C1E9BE
S3150800395005020122C1E907204862C86208630846D1
S31508003960FEF7C8FE20B14FF48E710AA0FCF775FD6C
S3150800397080210748FEF7F5FA402200210448FEF7A1
S31508003980F4FA802201210248FEF7EFFA002010BD62
S31508003990880300202E2E5C757362645F636F6E6603
S315080039A02E6300000A0601F07F01D0F82002C1EB61
S315080039B0C10100EB810002D590F83E00704790F8EF
S315080039C0FE017047002070470020704770B51D46FD
S315080039D013460024D0F820022A46FEF7B0FB30B181
S315080039E0012801D0022801D0022400E00124204643
S315080039F070BD10B50024D0F82002FEF7D0FB30B118
S31508003A00012801D0022801D0022400E00124204622
S31508003A1010BD70B50022044640231146FFF7D6FFB5
S31508003A2040252B46002280212046C4F81051FFF776
S31508003A30CDFF0120256284F8FC01D4F8180228B1CC
S31508003A40D4F814022179426820469047002070BDB8
S31508003A5090F8FD1180F8FC110020704710B590F819
S31508003A60FC11032904D1D0F81412C96901B1884799
S31508003A70002010BD01740020704710B50024D0F84E
S31508003A802002FEF7C8FE30B1012801D0022801D075
S31508003A90022400E00124204610BD70B5044600F556
S31508003AA00270054600F06FF80120C4F8F401B4F876
S31508003AB00E02C4F8F80194F8082212F01F000AD082
S31508003AC001280DD0022810D002F08001204600F00F
S31508003AD011F8002070BD2946204600F0BAF8F8E72C
S31508003AE02946204600F09CF9F3E72946204600F0CF
S31508003AF029F9EEE710B50024D0F82002FEF773FB8B
S31508003B0030B1012801D0022801D0022400E00124A6
S31508003B10204610BD10B50024D0F82002FEF796FE08
S31508003B2030B1012801D0022801D0022400E0012486
S31508003B30204610BD10B50024D0F82002FEF7A7FED7
S31508003B4030B1012801D0022801D0022400E0012466
S31508003B50204610BD90F8FC1180F8FD11042180F86C
S31508003B60FC110020704710B50024D0F82002FEF79B
S31508003B7074FB30B1012801D0022801D0022400E0EC
S31508003B800124204610BD0A7802704A7842708A7865
S31508003B90CB7802EB032242800A794B7902EB0322A7
S31508003BA082808A79C97902EB0121C1807047024671
S31508003BB0002011B1C2F8141270470220704710B5E0
S31508003BC0D0F8142202241AB11268904700B90024CA
S31508003BD0204610BD70B50D461A4E897804463170D8
S31508003BE0012928D894F8FC01022802D0032822D1FA
S31508003BF005E099B10320616084F8FC0109E091B100
S31508003C00606888420AD0C1B22046FFF75BFC31786B
S31508003C1061602046FFF7D3FF02280CD02046BDE896
S31508003C207040FFF789BC022084F8FC0120466160D9
S31508003C30FFF748FCF2E729462046BDE87040FFF743
S31508003C4058BC00000800002010B5FFF763FF0020ED
S31508003C5010BD2DE9F04100274A7801263B460A2A7D
S31508003C6043D2DFE802F03C584251420805422A276F
S31508003C70FFF7E8FC63E004468888C8B9C888B8B97D
S31508003C80887800F07F0594F8FC01032810D084F8A2
S31508003C90FE5129462046FFF7F0FE2046FFF74CFC6A
S31508003CA01DB1022084F8FC0149E084F8FC6146E075
S31508003CB020461AE0FFF78EFF41E0CA88012A14D190
S31508003CC090F8FC21022A02D0032A0ED104E0012230
S31508003CD000F10801836014E00122011D11E090F84B
S31508003CE0FC21022A04D0032A02D0FFF702FC26E0B0
S31508003CF0C660D0F8041209B10321C160022200F19E
S31508003D000C01FFF70CFC1AE004464888012816D176
S31508003D10C4F804620BE0044690F8FC01022801D0BE
S31508003D200328C5D14888012809D1C4F80432D4F833
S31508003D3014028268204690472046FFF7FDFB384666
S31508003D40BDE8F08170B50D46044628780026097945
S31508003D50C0F34110012806D06878A0B301281FD007
S31508003D6003283FD107E0D4F8140229468268204682
S31508003D709047002070BD94F8FC01022817D003284C
S31508003D802CD1688828B921B1802902D02046FFF7AE
S31508003D90B1FED4F81402294682682046904713E0FB
S31508003DA094F8FC01022802D0032817D103E0C9B110
S31508003DB080291BD116E06888A0B9480604D0204699
S31508003DC0FFF7E8FCE5E703E02046FFF7B5FB09E067
S31508003DD094F8FC01022807D003280BD02946204670
S31508003DE0FFF787FB304670BD4806FBD02046FFF735
S31508003DF081FEF7E7080601F07F0004EB001501D500
S31508003E00143501E005F582752046FFF7CBFD00B1B4
S31508003E1001202860022229462046FFF780FBE1E7B9
S31508003E2070B5054690F8FC010C4603280DD120799B
S31508003E3001280AD8D5F81402826828469047E088EF
S31508003E4030B92846FFF778FB02E02846FFF751FB12
S31508003E50002070BD70B50A78012302F00F054E7870
S31508003E60AB401B4CD0F81C58012E17D045EA03432B
S31508003E70C0F81C3800EB4210D0F8002B12040BD403
S31508003E80D0F8002B0B89C978C3F30A031A4344EA0E
S31508003E9081410A43C0F8002B002070BD9BB21D4328
S31508003EA0C0F81C5800EB4210D0F800391B04F3D4B4
S31508003EB0D0F800390D89C978C5F30A0589042B435A
S31508003EC041EA82510B432343C0F80039E4E7000076
S31508003ED000800010D0F800196FF30A01C0F8001925
S31508003EE0D0F80818C1F34101022905D1D0F8001904
S31508003EF041F00301C0F80019D0F8041841F48071A4
S31508003F00C0F804180020704770B5044606980A9E43
S31508003F10049D0D99012816D0E06840F04000E06045
S31508003F20204600F02BF8A16B1EB321F48031A16363
S31508003F30012D07D1A16841F00601A160A16841F0F1
S31508003F402001A16070BDA06B20F48030A063E068FA
S31508003F50094A1040E060E06820F44010E06001295A
S31508003F6003D1E06840F48010E060204600F006F8CF
S31508003F70DEE741F48031DAE7BFFFBDFF0B4A0021D7
S31508003F80491C91420AD80369002BF9DA0369002112
S31508003F9043F001030361491C914201D9032070478C
S31508003FA00369DB07F7D1002070470000400D0300C6
S31508003FB070B50B78012403F00F054E7804FA05F264
S31508003FC0D0F83C58012E17D025EA0242C0F83C2802
S31508003FD0D0F81C28097801F00F018C4022EA044128
S31508003FE0C0F81C1800EB4310D0F8001B0E4A11400D
S31508003FF0C0F8001B002070BD92B29543C0F83C582B
S31508004000D0F81C28097801F00F018C40A1B28A4328
S31508004010C0F81C2800EB4310D0F80019034A1140D9
S31508004020C0F80019E6E700000078F3EF007833ECF3
S3150800403010B5D0F8041821F00201C0F804180320BE
S31508004040FDF7A8FD002010BD10B5D0F8041841F002
S315080040500201C0F804180320FDF79CFD002010BDDE
S315080040602DE9F04F0D46DDE90B1B00270446DDF868
S3150800407040A0DDF8249038463E4604EB8002C2F89C
S315080040800461401C0F28F8D3BAF1000F204615D05A
S31508004090006820F400122260A06B40F4002220463B
S315080040A0A263C4F8006ED4F80028C4F800280129D1
S315080040B010D0D0F8001841F0030110E0806B40F4EE
S315080040C00012A263A06B20F40022A263A06B20F466
S315080040D08022E4E7D0F800180BB141F00101C0F8DE
S315080040E00018102100F09EFA00B10127204600F0C2
S315080040F089FA00B10127C4F81068C4F81468C4F82E
S315080041001C6800204FF000634FF090424FF67F3C4A
S3150800411014E004EB4011D1F80089B8F1000F06DA73
S3150800412010B1C1F8002904E0C4F8003901E0C1F86B
S315080041300069C1F81069C1F808C9401C8542E8D869
S31508004140002014E004EB4011D1F8008BB8F1000F01
S3150800415006DA10B1C1F8002B04E0C4F8003B01E010
S31508004160C1F8006BC1F8106BC1F808CB401C85423A
S31508004170E8D8D4F8100820F48071C4F81018B9F1FA
S31508004180010F08D11449C4F83018D4F83008134977
S315080041900843C4F83008A6616FF080406061B9F141
S315080041A0000F03D1A06940F01000A061A0690C4976
S315080041B00843A061BBF1000F03D0A06940F00800D6
S315080041C0A061BAF1010F03D1A06906490843A061AD
S315080041D03846BDE8F08F00000001800003000100AA
S315080041E000383C8004000040816821F001018160AC
S315080041F00020704770B50D784E78434CEBB200EB53
S315080042004313012E1FD0D3F8100B6FF31200C3F817
S31508004210100BD3F8100B2040C3F8100B486908B1EF
S3150800422088684861D3F8100B40F40020C3F8100BD7
S31508004230D3F8100B8C68C4F312042043C3F8100B90
S31508004240012A55D058E04E69002ED3F8106932D0AD
S315080042506FF31206C3F81069D3F810692640C3F83D
S3150800426010694E698C68A64200D94C61D3F810498A
S3150800427044F40024C3F81049D3F810494E69C6F32C
S3150800428012063443C3F81049012A22D000EB45121E
S31508004290D2F8003943F00443C2F800394A6932B308
S315080042A0D0F83428097801F00F03012199400A4310
S315080042B0C0F8342826E02640C3F81069D3F8104918
S315080042C044F40024C3F81049D3F810496FF31204D4
S315080042D0D8E7096919B100EB4512C2F8141900EBC1
S315080042E04510D0F8001941F00441C0F8001909E05A
S315080042F0C86808B1C3F8140BD3F8000B40F00440A3
S31508004300C3F8000B002070BDFFFF07E010B5036C73
S31508004310134CA34203D9D0F8003B002B1EDB002325
S31508004320C0F8103BD0F8103B43F40023C0F8103B0C
S31508004330D0F8103B43F01803C0F8103BD0F8103BF8
S3150800434043F0C043C0F8103B012907D1C0F8142B2D
S31508004350D0F8001B41F08021C0F8001B002010BDDA
S315080043600A30544F4A780B78012A00EB43100BD0D9
S31508004370D0F8002B22F40012C0F8002BC9780329C4
S3150800438014D0022912D017E0D0F8002922F400121E
S31508004390C0F80029C978032901D002290CD1D0F820
S315080043A0001941F08051C0F8001905E0D0F8001B4B
S315080043B041F08051C0F8001B002070470A784B78FE
S315080043C0D1B200EB4110012B12D0D0F8001B002906
S315080043D006DB2AB1D0F8001B21F08041C0F8001B8B
S315080043E0D0F8001B41F40011C0F8001B00207047EC
S315080043F0D0F80019002906DB2AB1D0F8001921F0F7
S315080044008041C0F80019D0F8001941F40011C0F82D
S315080044100019EBE7F8B50C784E78764DE3B26FF0F5
S31508004420604700EB4313012E26D0D3F8104B6FF3E9
S315080044301204C3F8104BD3F8104B2C40C3F8104B9A
S315080044404D69002D73D08C6825446D1EB5FBF4F4B8
S31508004450D3F8105BA4B207EAC4463543C3F8105B29
S31508004460D3F8105B8E686643C6F312042543C3F877
S31508004470105B012A70D0A5E04E69002ED3F81069AA
S3150800448021D06FF31206C3F81069D3F810692E40CD
S31508004490C3F810694E698D682E44761EB6FBF5F58D
S315080044A0D3F8106907EAC5453543C3F81059D3F858
S315080044B010594E69C6F312063543C3F81059CD781C
S315080044C0012D0ED019E02E40C3F81069D3F8105903
S315080044D045F40025C3F81059D3F810596FF312059F
S315080044E009E0D3F8105925F0C045C3F81059D3F898
S315080044F0105945F00055C3F81059012A18D000EB99
S315080045004413D3F8004944F00444C3F80049CC786E
S31508004510012C2FD04A6962B3D0F83428097801F003
S315080045200F03012199400A43C0F8342860E036E0B9
S315080045300A691AB100EB4413C3F81429C97801298A
S315080045400FD1D0F80818C90500EB4411D1F8002995
S3150800455003D442F0005202E030E042F08052C1F843
S31508004560002900EB4410D0F8001941F00441C0F8C6
S3150800457000193DE0D0F80848E405D3F8004902D40C
S3150800458044F0005401E044F08054C3F80049009216
S315080045908A8A93B20A78C96800F05FF928E0D3F8E6
S315080045A0104B8D68C5F312052C43C3F8104BD3F88E
S315080045B0104B44F40024C3F8104B5AE7CA680AB1F2
S315080045C0C3F8142BC97801290CD1D0F80808C005FE
S315080045D0D3F8000B02D440F0005001E040F08050C0
S315080045E0C3F8000BD3F8000B40F00440C3F8000BE7
S315080045F00020F8BDFFFF07E0816841F001018160F6
S3150800460000207047002110220261054A491C914288
S3150800461001D9032070470369DB06F7D400207047E9
S31508004620400D03000022202343EA81110161054958
S31508004630521C8A4201D90320704703699B06F7D4A6
S3150800464000207047400D0300D0F8080810F0060057
S3150800465004D0022803D0062801D00F207047022074
S315080046607047406900F001007047D0F81818D0F874
S315080046701C08084080B27047D0F81818D0F81C08F3
S315080046800840000C704710B5D0F81038D0F8342818
S3150800469001F00F0400EB4110E24002F00102D0F8ED
S315080046A0080943EAC212104010BD00EB4111D1F8C7
S315080046B0081BD0F81408084070474169806908400B
S315080046C070470346D21C10B508469208002103F528
S315080046D0805302E01C68491C10C09142FAD310BDF1
S315080046E010B5C26822F0C042C260012902D029B1C1
S315080046F0012010BDC16841F0005102E0C16841F0D7
S315080047008041C1603220FDF745FA002010BDD0F87F
S31508004710002822F4FE62C0F80028D0F800284FF4DA
S31508004720FE6303EA01110A43C0F800280020704717
S31508004730022A3ED1264A274B0A449A4201D20F2121
S3150800474038E0254A254B0A449A4201D20E2131E027
S31508004750234A244B0A449A4201D20D212AE0224ACE
S31508004760224B0A449A4201D20C2123E0204A214BCB
S315080047700A449A4201D20B211CE01F4A1F4B0A44E5
S315080047809A4201D20A2115E01D4A1E4B0A449A4252
S315080047900FD31D4A1D4B0A449A4201D2082109E04B
S315080047A01B4A11441B4A914201D2072102E0062105
S315080047B000E00921C26822F47052C260C2684FF450
S315080047C0705303EA81210A43C26000207047000043
S315080047D0405327FF00350C00401E1BFF40420F00C8
S315080047E000DC0BFF804F1200808CF9FE20D61300E8
S315080047F060B6E5FE60E3160000D3CEFE40771B00E8
S31508004800C05BB3FEC091210000CA91FE2075380036
S31508004810E05459FEE09C410010B5044600214FF6CD
S315080048207F3004EB4112C2F80809C2F8080B491C8C
S315080048300F29F6D30020C4F81008C4F81408C4F8E1
S315080048401C082046FFF7DEFE002805D12046BDE8F5
S3150800485010401021FFF7E6BE10BD10B5029C64B9E2
S31508004860DB1C9C0800EB0230002300F5805002E0B8
S3150800487004C902605B1CA342FAD3002010BD0000E5
S315080048802DE9F041134F8046134E387888B04FF41F
S315080048900065A0B91148016841F00401016000688B
S315080048A0012400F00400069000950020CDE901409F
S315080048B0CDE9034069463046FEF7CEF83C70B8F1BC
S315080048C0010F03D0B56108B0BDE8F0814FF0006074
S315080048D0B061F8E71C0000200008024030380240AA
S315080048E070470000094B10B55A6862B154695C609C
S315080048F0117490600023D060537410600844401E01
S315080049005060907C10BDFF2010BD0000EC00002018
S3150800491070B50D460446022804D34FF4F1710EA073
S31508004920FBF79BFD164B04EB440203EBC200417CEC
S3150800493081B1816809782970417C491E4174816872
S31508004940491C81604468A14202D953F8321081603B
S31508004950012070BD002070BD2E2E5C2E2E5C2E2EE2
S315080049605C2E2E5C536F757263655C41524D434DE8
S31508004970345F53544D333246345C7573622E63008C
S315080049802C15002070B50C460546022804D34FF4B2
S31508004990E0710FA0FBF761FD174B05EB450203EB32
S315080049A0C200417C057CA94201D1002070BDC168C6
S315080049B00C70417C491C4174C168491CC16044683B
S315080049C0A14202D953F83210C160012070BD00001F
S315080049D02E2E5C2E2E5C2E2E5C2E2E5C536F757240
S315080049E063655C41524D434D345F53544D333246F3
S315080049F0345C7573622E63002C150020064810B5CA
S31508004A00D0F82002FDF721FB0348FEF7A0FDBDE81C
S31508004A1010400020FFF734BFE015002070B5264887
S31508004A20002100F11802817442611830491C1832BD
S31508004A3011F0FF01F7D08174002141611F491E481A
S31508004A40486000F130044021601CFFF74BFF2070DE
S31508004A5004F141054021681CFFF744FF28702178BE
S31508004A60FF2901D0FF2803D1842115A0FBF7F5FC07
S31508004A70114800221C49B430FEF777FE0E481B4940
S31508004A80B430FFF794F80120FFF7FAFE0A48B4306D
S31508004A90FFF7DAF80848B430D0F82002FDF7B7FA7D
S31508004AA0FBF702FD4FF4FA61884204D2BDE8704074
S31508004AB00846FBF717BD70BD2C150020EC0000203A
S31508004AC02E2E5C2E2E5C2E2E5C2E2E5C536F75724F
S31508004AD063655C41524D434D345F53544D33324602
S31508004AE0345C7573622E6300900000205800002025
S31508004AF070470000014602480078FFF709BF00002A
S31508004B009D1500202DE9F041804619480F46D0F83A
S31508004B102002FDF7C3FB174C174D0026607838B105
S31508004B2020782844401CFFF7E5FF01280DD01DE03A
S31508004B301148FFF7DFFF012818D12878401E3E28C4
S31508004B4014D801206070267010E02078401CC2B28C
S31508004B5022702878904209D1691C4046FBF767FE07
S31508004B606670207838700120BDE8F0810020FBE7E8
S31508004B70E0150020EC000020AC1400202DE9F041DF
S31508004B800446FEF747FC064621461148FEF7C9FECD
S31508004B900F4F002485B2433F4FF4B4780BE0315DE4
S31508004BA03878FFF7EFFE012803D0414609A0FBF746
S31508004BB054FC641CA4B2AC42F1D3FEF72BFCBDE84E
S31508004BC0F0410246402301210148FEF712BF0000CA
S31508004BD0E01500202E2E5C2E2E5C2E2E5C2E2E5CD2
S31508004BE0536F757263655C41524D434D345F535440
S31508004BF04D333246345C7573622E630001460248B3
S31508004C000078FFF7BFBE00005C15002070B50D46A2
S31508004C1006463F2903D9B9210EA0FBF71EFC2846F4
S31508004C20FFF7ECFF012803D0BD210AA0FBF715FC0E
S31508004C3000240CE0FBF7F1FD305DFFF7DFFF0128EC
S31508004C4003D0C62103A0FBF708FC641CA4B2AC423F
S31508004C50F0D370BD2E2E5C2E2E5C2E2E5C2E2E5C76
S31508004C60536F757263655C41524D434D345F5354BF
S31508004C704D333246345C7573622E63002DE9F84372
S31508004C801A4E3478022C04D340F2022118A0FBF7FE
S31508004C90E4FB164904EB4400303901EBC000457CBF
S31508004CA0002D21D0402D00D94025104F00244FF467
S31508004CB0A378703F0EE030786946FFF729FE012891
S31508004CC003D041460AA0FBF7C8FB9DF800003855FB
S31508004CD0641CE4B2AC42EED3044A2B46703A8121F6
S31508004CE002F1F400FEF73FFFBDE8F8835C150020EB
S31508004CF02E2E5C2E2E5C2E2E5C2E2E5C536F75721D
S31508004D0063655C41524D434D345F53544D333246CF
S31508004D10345C7573622E630070B5FBF7A3FFE0B1D0
S31508004D20104C0020012560702570FF21E1701021CC
S31508004D3021716071FBF7DCFCA071FBF7EDFCE071FB
S31508004D40FBF7EAFC000A20726572A5720820A4F82F
S31508004D504400BDE87040FEF799B8BDE870401020E1
S31508004D6000F048B9EC0F002070B50446FBF7C0FC0C
S31508004D706178801E884201DA222016E00D4DFF2058
S31508004D80E8700120A5F84400617849B1A21CA86C16
S31508004D90FEF780F840B16178A86C0844A86470BD35
S31508004DA0FEF766F80028FAD13120BDE8704000F019
S31508004DB021B90000EC0F002005480021017081642C
S31508004DC080F84310A0F844108170417070470000C5
S31508004DD0EC0F002002480078002800D00120704718
S31508004DE0EC0F00202DE9F05F044600780127DFF874
S31508004DF0ECA1FF2817D09AF800105646012979D158
S31508004E004FF000094FF0FF084FF0070BF4282CD09D
S31508004E1016DCD0286FD00ADCC9286DD0CC286CD017
S31508004E20CF286BD1C1E02046FFF776FFB6E06B4985
S31508004E30D1288D6C75D0D22874D0F3285ED130E095
S31508004E40F5380A285AD2DFE800F00527B5B5B54780
S31508004E50B55A5C6EFBF74CFC6278401E904201DA4C
S31508004E60222094E0301DB16C09E0FBF741FC617823
S31508004E70401E8842F4DB6168B1646278301DFBF736
S31508004E80D6FC86F803806178B06C0844B064607814
S31508004E90401CA6F8440081E086F803806068B06488
S31508004EA047E086F8038066680AF10708002405E0EB
S31508004EB015F8010B2044C4B2FBF7AFFC761EF7D2F7
S31508004EC0C8F800408AF804708AF805908AF80690AF
S31508004ED00821AAF8441061E086F803804048B064C7
S31508004EE086F8049086F8059086F80690C6F807B006
S31508004EF0082013E070E030E01EE055E05AE000209C
S31508004F0045E086F8038086F804907178717186F812
S31508004F10069086F8079086F808900620AAF84400B6
S31508004F203CE02EE01DE086F8009086F8019086F8B1
S31508004F300380AAF8447031E0FBF7DAFB411E621CD5
S31508004F40B06CFDF7A7FF78B386F80380FBF7D0FBB4
S31508004F50B16C401E0844B0641EE02046FFF704FF0B
S31508004F601CE086F8038086F804904C4686F805907F
S31508004F70FBF7BEFBB071F47134727472A6F844B0D4
S31508004F800CE028466168FDF77DFF68B102E000F095
S31508004F9031F803E086F80380A6F844709AF84300CF
S31508004FA05446012808D00AE002E0FBF74FFCF1E777
S31508004FB03120ECE72020EAE7102000F01BF8B4F9CE
S31508004FC04400002808DDE21C84F84370BDE8F05F61
S31508004FD081B21046FBF7FEBBBDE8F09FEC0F002040
S31508004FE0567200080249002081F843007047000005
S31508004FF0EC0F00200349FE22CA7008710220A1F8AE
S3150800500044007047EC0F00200907090E002804DB4E
S3150800501000F1E02080F80014704700F00F0000F15E
S31508005020E02080F8141D704770B504460020E07033
S31508005030401EE062204601F06AFD08B1042070BDFA
S3150800504004F22E2001F046FDA0F52A41553901D07B
S31508005050032070BD04F1660001F031FD074DB5EB84
S31508005060002F06D004F1820001F029FDB5EB002FD0
S3150800507001D1002070BD022070BD000000464154D9
S3150800508000E0401C02780AB18A42FAD1D0B27047D1
S315080050904269891E921E8A4201D800207047826A98
S315080050A0408901FB002070472DE9F05F814688465C
S315080050B001F11A0001F00EFD88BB98F800000127DF
S315080050C000F03F00401E00EB8001DFF85CA001EB1A
S315080050D0C00400254FF6FF7B1AF8051001EB0800FF
S315080050E001F0F8FC06466FB1FF2C18D201F008FA59
S315080050F0074639F81400641C01F002FA87420ED1FB
S31508005100374601E05E450AD16D1C0D2DE4D398F8AB
S315080051100000400606D52FB139F8140010B100205A
S31508005120BDE8F09F0120FBE77C7300082DE9F041FC
S3150800513005680F00804606D001F0C0FB022809D298
S315080051400120BDE8F081EE6816B16869B04207D85B
S31508005150012605E0411CF4D069698142F1D83E4632
S3150800516034466869641CA04202D80224022E0AD377
S315080051702146404601F0A2FB38B10128E1D0411C86
S31508005180DFD0B442EDD10020DBE74FF0FF363246E0
S315080051902146284601F066FD30B957B12246394600
S315080051A0284601F05FFD20B101280FD001242046D2
S315080051B0C7E7EC60D5E90401891E884201D2401E82
S315080051C02861287940F001002871F0E73446EEE7B7
S315080051D02DE9F35F0E68009800248846D0F82890D9
S315080051E02546705D6D1C202813D32F2811D05C2806
S315080051F00FD0FF2C36D2012101F066F9070031D015
S31508005200802F12D2014663A0FFF73AFF50BB0CE08D
S315080052106D1C715D2F29FBD05C29F9D07219C8F86D
S315080052200020202805D204260EE029F81470641CF4
S31508005230D7E7002608E009EB440030F8020C2028DE
S3150800524001D02E2802D1641E002CF4D1002129F8A1
S3150800525014103CB100980B222021006A01F051FC81
S31508005260002703E00620BDE8FC9F7F1C39F81700DD
S315080052702028FAD02E28F8D01FB146F0030600E001
S31508005280641E2CB109EB440030F8020C2E28F7D125
S315080052904FF0000AD0464FF0080B39F817507F1C1C
S315080052A005B3202D03D02E2D04D1A74202D046F0F7
S315080052B00306F2E7DA4501D2A74219D1BBF10B0F73
S315080052C00ED0A74201D046F003060BD84FEA8860F5
S315080052D027464FF0080A4FF00B0B4FEA1068DCE739
S315080052E046F003060098006A0178E5292ED02FE0DB
S315080052F0802D0CD30021284601F0E6F8050003D0DE
S315080053002748284410F8805C46F0020625B129464D
S3150800531024A0FFF7B5FE18B15F2546F003060EE098
S31508005320A5F14100192802D848F0020807E0A5F1BE
S315080053306100192803D8203D48F00108ADB200984D
S31508005340016A01F80A500AF1010AA6E70521017067
S31508005350BBF1080F03D14FEA88604FEA1068C8F31B
S315080053608100032803D06FEA0801890701D146F0B6
S315080053700206B10709D408F00301012901D146F054
S315080053801006012801D146F008060098006AC67280
S31508005390002068E7222A3A3C3E3F7C7F0000000056
S315080053A0FC7200082B2C3B3D5B5D000003494FF463
S315080053B080508861FF2001F0CFBE00000004024043
S315080053C02DE9F04704460021D0F8009000F03BFA9A
S315080053D0002857D1FF254FF0FF382F46C4F8248000
S315080053E04846A16901F093FB06004AD1E1690878AD
S315080053F050B1CA7AE52802F03F02A27138D01307E5
S3150800540004D50F2A34D105E004263AE00F2A01D044
S31508005410C5B11CE0A26A72B3430605D54F7B20F0DE
S315080054204000236905466362A84208D1487BB84212
S3150800543005D11046FFF738FE08B16D1E00E0FF25BE
S31508005440EDB218E0084601F0DDFDB84219D0206A31
S31508005450C17AC9070CD1E1690B2210F8015B11F872
S31508005460013B5B1B521E02D0002BF6D000E043B175
S31508005470FF25C4F824800021204600F005F8060020
S31508005480AED03046BDE8F0872DE9F04705460468FA
S315080054900069894600F12008A86910B1B8F5001F0F
S315080054A002D30420BDE8F0875FEAC8515AD1401CF0
S315080054B0A8616969002729B16089401E10EA582F3A
S315080054C005D04FE02189B1EB581F1DD94AE028467F
S315080054D001F0F4F9064601281AD9701C30D0606923
S315080054E0B04239D8B9F1000F0ED028466969FFF7DE
S315080054F01DFE06000AD0012E0AD0701C20D02046B8
S3150800550001F0D2FDE0B905E0AF61CAE70720C9E7B7
