S31508000000A8AA002001030008090300080B0300083A
S315080000100D0300080F030008110300080000000084
S315080000200000000000000000000000004102000877
S3150800003015030008000000009D02000815220008AC
S315080000401B0300081B0300081B0300081B0300080A
S315080000501B0300081B0300087D1100081B0300088A
S315080000601B0300081B0300081B0300081B030008EA
S315080000701B0300081B0300081B0300081B030008DA
S315080000801B0300081B0300081B0300081B030008CA
S315080000901B0300081B0300081B0300081B030008BA
S315080000A01B0300081B0300081B0300081B030008AA
S315080000B05D2300081B0300081B0300081B03000838
S315080000C01B0300081B0300081B0300081B0300088A
S315080000D01B0300081B0300081B0300081B0300087A
S315080000E01B0300081B0300081B0300081B0300086A
S315080000F01B0300081B0300081B0300081B0300085A
S315080001001B0300081B0300081B0300081B03000849
S315080001101B0300081B0300081B0300081B03000839
S315080001201B0300081B0300081B0300081B03000829
S315080001301B0300081B0300081B0300081B03000819
S315080001401B0300081B0300081B0300081B03000809
S315080001501B0300081B0300081B0300081B030008F9
S315080001601B0300081B0300081B0300081B030008E9
S315080001701B0300081B0300081B03000800000000FF
S315080001801B0300081B03000800F002F800F049F8FA
S315080001900AA090E8000C82448344AAF10107DA45D4
S315080001A001D100F03EF8AFF2090EBAE80F0013F0DD
S315080001B0010F18BFFB1A43F001031847EC4A000069
S315080001C00C4B0000103A24BF78C878C1FAD85207F9
S315080001D024BF30C830C144BF04680C6070470000B3
S315080001E00023002400250026103A28BF78C1FBD832
S315080001F0520728BF30C148BF0B607047732900F00B
S315080002004A82002070471FB504F030FD9DE80300C0
S3150800021000F08AFD00F0C6FA1FBD10B500F02BFBF2
S3150800022010BD00F05BFB1146FFF7EDFF02F08CFCFA
S3150800023000F04AFD03B4FFF7F0FF03BC00F0E6FE4A
S315080002402C4B19680868B0E8F04F80F30988BFF3AB
S315080002506F8F4FF0000080F3118870470000000090
S3150800026008480068006880F308884FF0000080F3AB
S31508000270148862B661B6BFF34F8FBFF36F8F00DF86
S3150800028000BF00BF08ED00E0DFF80C00016841F48C
S3150800029070010160704700BF88ED00E0EFF3098048
S315080002A0BFF36F8F134B1A681EF0100F08BF20EDAF
S315080002B0108A20E9F04F106009B44FF0A00080F3CF
S315080002C01188BFF34F8FBFF36F8F03F0FBFD4FF01D
S315080002D0000080F3118809BC19680868B0E8F04F77
S315080002E01EF0100F08BFB0EC108A80F30988BFF320
S315080002F06F8F704700000020EFF3058070470000FD
S315080003000948804709480047FEE7FEE7FEE7FEE79B
S31508000310FEE7FEE7FEE7FEE7FEE7FEE704480549D7
S31508000320054A064B70470000F922000889010008B3
S31508000330A8A40020A8AA0020A8A60020A8A60020F5
S3150800034053EA020C00F069802DE9F04B4FF00006E5
S31508000350002B1FBFB3FA83F503FA05F424FA05F652
S315080003605E4012BF1643B2FA82F502FA05F4C5F1E9
S3150800037020051EBF22FA05FC44EA0C04203556EA7D
S31508000380044C4FEA144418BF641C4FF000084FF0A1
S315080003900009904271EB030C39D3002919BFB1FA51
S315080003A081F701FA07F6B0FA80F700FA07F6C7F1FF
S315080003B020071EBF20FA07FC46EA0C062037B6FBC4
S315080003C0F4FCA7EB0507103F07F01F0BCBF120063F
S315080003D00CFA0BFB2CFA06F644BFB3460026202F70
S315080003E0A4BF5E464FF0000B5BEA060C08BF4FF051
S315080003F0010B19EB0B09ABFB027C48EB0608C01B8B
S3150800040006FB02CC0BFB03CC71EB0C01C1E70B46D8
S31508000410024641464846BDE8F08B13B54FF000004A
S315080004204FF00001AFF30080BDE81C4070470000A4
S315080004300FB4044910B503AA029800F031F910BCAC
S315080004405DF814FB9CA300202DE9F0410E460446F6
S31508000450002020622046E168884730B3252805D069
S31508000460D4E901219047206A401CF2E7E16820465A
S3150800047000278847050018D0A5F14100192802D899
S3150800048020354FF400673246294620462760FFF795
S31508000490B5FE40B1012804D0F61D26F00706083639
S315080004A0D8E7361DD6E72846DAE7206ABDE8F081A0
S315080004B070B50C460546012A05D02878800600D571
S315080004C0EA69002302E0012305E05B1C934202D29D
S315080004D0E05C0028F9D1A869E618C01AA861286A5C
S315080004E0184428622846AFF3008004E0D5E90121C4
S315080004F014F8010B9047B442F8D32846AFF30080AE
S3150800050070BD032A40F2308010F0030C00F015800D
S3150800051011F8013BBCF1020F624498BF11F801CBF8
S3150800052000F8013B38BF11F8013BA2F1040298BF5D
S3150800053000F801CB38BF00F8013B11F0030300F0C7
S31508000540C180083AC0F0088051F8043B083A51F8CF
S3150800055004CBA0E80810F5E7121D5CBF51F8043B70
S3150800056040F8043BAFF30080D20724BF11F8013BE3
S3150800057011F801CB48BF11F8012B24BF00F8013B45
S3150800058000F801CB48BF00F8012B704702F0FF03C3
S3150800059043EA032242EA024200F0C8B84FF00002DA
S315080005A000B5134694469646203922BFA0E80C505B
S315080005B0A0E80C50B1F12001BFF4F7AF090728BF36
S315080005C0A0E80C5048BF0CC05DF804EB890028BFB2
S315080005D040F8042B08BF704748BF20F8022B11F0DB
S315080005E0804F18BF00F8012B704700004FF0013C00
S315080005F050F8042B51F8043B9A4221D1A2EB0C0384
S31508000600934313EACC1317D150F8042B51F8043B43
S315080006109A4215D1A2EB0C03934313EACC130BD1E0
S3150800062050F8042B51F8043B9A4209D1A2EB0C036B
S31508000630934313EACC13DBD04FF00000704700BF9A
S31508000640D01A01BAB1FA81F101F0180122FA01F0C3
S31508000650CB40C1F12001DBB2C0B2C01A2CFA01F3BB
S31508000660D11A914311EAC311E6D170477047704712
S31508000670704710B5436913B1AFF3008001E0FFF787
S3150800068017FF012010BD127800F124010A7000221C
S315080006904A700122EDE711684FF0FF32E9E70000E2
S315080006A0074B70B50D467B4400F065F804462846AE
S315080006B000F074F810B14FF0FF3070BD204670BDE1
S315080006C0A123000010B5203AC0F00B80B1E81850FD
S315080006D0203AA0E81850B1E81850A0E81850BFF41E
S315080006E0F5AF5FEA027C24BFB1E81850A0E81850BD
S315080006F044BF18C918C0BDE810405FEA827C24BF11
S3150800070051F8043B40F8043B08BF7047D20728BF9E
S3150800071031F8023B48BF11F8012B28BF20F8023BED
S3150800072048BF00F8012B70474FF000020429C0F0BB
S31508000730128010F0030C3FF433AFCCF1040CBCF17B
S31508000740020F18BF00F8012BA8BF20F8022BA1EB57
S315080007500C01FFF725BF5FEAC17C24BF00F8012B17
S3150800076000F8012B48BF00F8012B704701694A1CA5
S3150800077002610878704700B58FB0CDE901310021D4
S31508000780059105497944CDE9031011466846FFF7F6
S315080007905BFE0FB000BD0000E5FFFFFF007B00F029
S315080007A08000704710B542485421FFF7F7FE4148CC
S315080007B05421FFF7F3FE40485421FFF7EFFE3F4967
S315080007C03B483C4A3F4B08603D490A603A49196034
S315080007D0531C0365481C1065012008653B48344ACC
S315080007E039A1784400F0D4F920B9384878440A3851
S315080007F000F073FA37482F4A35A1784400F0C8F953
S3150800080020B9344878440A3800F067FA32482A4A48
S315080008102FA1784400F0BCF920B92F4878440A384B
S3150800082000F05BFA40232248DC000021224600F053
S315080008308CF920B125487844543800F04EFA1D4802
S3150800084022464023002100F080F920B1214878444F
S31508000850543800F042FA184822461023002100F0C6
S3150800086074F9002806D01C487844BDE8104056386C
S3150800087000F033BA10BD104870B5006D20F00104C1
S315080008800B4800F0FBF90B4800F0F8F90A4800F0AD
S31508000890F5F909E0206D20F00105204600F0EEF993
S315080008A0204600F040F82C46002CF3D170BD00001D
S315080008B048A300209CA30020F0A300208C00002061
S315080008C09000002094000020720000009044000070
S315080008D0770000007F4400006F440000754600F072
S315080008E003FAAE4605006946534620F007008546DA
S315080008F018B020B5FFF712FDBDE820404FF00006FE
S315080009004FF000074FF000084FF0000B21F00701E9
S31508000910AC46ACE8C009ACE8C009ACE8C009ACE82C
S31508000920C0098D46704770B50446051F00F0E0F90A
S315080009300068002C14BF446870BD002C18BFAC4278
S315080009403CBF20466468F8D301680A18AA4218BF53
S31508000950456003D12A680546114401602868411993
S31508000960A1421CBF6C6070BD61686960216808445B
S31508000970286070BD2DE9F04705460C46C86820F486
S31508000980201040F48000C860800602D5084600F0B2
S31508000990FCFAE06841F282014FF0FF390140022972
S315080009A003D0204600F09AFAB5E000F42041B1F5EC
S315080009B0004F0FD1C00306D56168E06A884200D8A7
S315080009C00846606006E02069E0626060606901F0E0
S315080009D0AAFFA061A0680022EEB200280DDAE1683D
S315080009E08B050AD4C043A06041F490302260E060D1
S315080009F06068411C61600670A5E0E0689046226068
S31508000A0040F40050E060206968BB606901F09DFF12
S31508000A10012704F12405A0B1A08910F4407F08D06D
S31508000A20E06900F0B0F9206118B1E06840F40060B0
S31508000A3016E0E7612561E06820F4407040F48060C4
S31508000A400EE0E06900F09FF900282061F1D0E06827
S31508000A5040F4006010F4407FE06002D140F48070FA
S31508000A60E06020696060E06825696FF0010AC105E9
S31508000A701FD56168E06A884200D80846411B04D041
S31508000A802246284600F034FAF0BBE068010203D596
S31508000A90E562C4E9015854E0691CE1626160E169F4
S31508000AA040F48030491EC4E9021030462E70BDE875
S31508000AB0F087010202D500F480320AE06068411C22
S31508000AC061600670E0680A2E40F48030E06006D067
S31508000AD00022E16A6068814203D90B4602E00122DE
S31508000AE0F7E70346A7895B1B7F0503D4E7699F429F
S31508000AF000DDE2B1814200D80146E5620F1AC4E979
S31508000B000158002B09DD00E005E022461946284673
S31508000B1000F0EEF908B14846C9E747B1A069E562B1
S31508000B206560C01BA061E06840F01000E060E06806
S31508000B30000208D56168A069E562491B084465603A
S31508000B40A0615046B3E73046B1E770B5C468A5075B
S31508000B5013D0650211D4B2F5807F09D0B2F5007FB3
S31508000B6006D0B2F5806F08D1012300F1240106E012
S31508000B705D1E6FF07F46B54201D3012070BD01614D
S31508000B80C361416024F470611143C160002070BDE7
S31508000B902DE9F0410C4607461646104600F06EF859
S31508000BA02078611C61280AD0722802D077283CD1A7
S31508000BB002E00125002405E00225042402E00824B9
S31508000BC048F2020511F8010B2B2806D0622809D035
S31508000BD011F8010C74280AD00BE045F0030544F01F
S31508000BE00204EFE745F0040544F00104EAE744F09F
S31508000BF010043846214601F0BBFE411C15D00021E1
S31508000C00316171604FF40071F560F1617061200720
S31508000C1004D530460222002100F0E4F8306D40F099
S31508000C20010030653046BDE8F0810020FBE72DE97C
S31508000C30F0410D460646104C206DC10704D0410808
S31508000C4004D020F00104F7E722460EE0542000F015
S31508000C509AF807000ED0206D47F001010843542189
S31508000C6020653846FFF79AFC3A4629463046BDE8DD
S31508000C70F0418DE70020D6E748A300202DE9F0478C
S31508000C8004464FF000094FF0FF37C568D4E90486DB
S31508000C90A80707D0204600F055F9304601F030FE87
S31508000CA0002802DA3846BDE8F087280502D540460E
S31508000CB0FFF739FE4C212046FFF770FC206D20F027
S31508000CC0010020654846EEE710B50446AFF30080FC
S31508000CD02046BDE81040FFF7ADBA10B500F07CF924
S31508000CE0BDE8104000F072B90048704744A40020DF
S31508000CF0004870474CA400207047704770477047FB
S31508000D0038B504460A4600206946AFF30080002835
S31508000D1008BF38BD02460099204600F084F9012034
S31508000D2038BD012000F0D3B9F8B5AFF30080054609
S31508000D3000200C46102000BF0646A819A0420DD96F
S31508000D40324669460020AFF30080070008BF00F06E
S31508000D50BEF90098A04218BF0546C419FFF7C8FF98
S31508000D6005600746F01D20F007004619284600F0E2
S31508000D7053F9B44208BFF8BDA21B31463868BDE82E
S31508000D80F84000F050B970B50646FFF7B1FF0568A0
S31508000D9006F10B0020F00704B4429CBF002070BD8A
S31508000DA02B466A68BAB11068A04210D304F108014C
S31508000DB088423CBF5068586007D351681019416093
S31508000DC01168091B016058601460101D70BD134638
S31508000DD05268002AE7D121462846FFF791FF0028E6
S31508000DE0DED170BD2DE9F041044616460D46476929
S31508000DF0007B80072ED0384601F0A7FD50BB3EB3D6
S31508000E00012E02D0022E25D104E0204600F025F955
S31508000E1005441DE0384601F086FDE168002841F0EA
S31508000E201001E16005DA204600F058F80120BDE817
S31508000E30F081C9030BD56268E16A914200D8114670
S31508000E40A26911442269891A814200DD08460544CF
S31508000E50002D01DA0220EAE7E16A6068E268814269
S31508000E6006D29103E06203D522F4003141F0100264
S31508000E70A6690027AE4213DCE16A814201D90B4616
S31508000E8000E0034603EB060C2369ACEB030CAC4508
S31508000E9006DD814201D98C4600E084469C4505D191
S31508000EA0A760276042F02000A5620DE0AD1BE66949
S31508000EB0AE1B8142A66000D90846C01A281A2060CF
S31508000EC05819606022F0200003490840E0600020BD
S31508000ED084F84870ABE70000BFCFD7FFC16821F49C
S31508000EE0001141F08001C1600021816001607047F6
S31508000EF02DE9F047814614460E464FF0FF38324832
S31508000F00D5685769054209D03846A16901F064FDDC
S31508000F10002811DB2C48C0430540E5602B463246C5
S31508000F204946384601F06EFDA16920F00042B21A22
S31508000F3011440028A16103D02046FFF7CFFF4046A1
S31508000F40BDE8F08770B504460569C06A61688842DD
S31508000F5000D80846E16821F42011E160C90312D5DA
S31508000F60A84208D02246411B2846FFF7C1FF10B108
S31508000F704FF0FF3070BD0020E562C4E90150E0681B
S31508000F8020F48030E060002070BD10B50446C068CB
S31508000F9020F02000E060A16AA06988420DD02046B2
S31508000FA0FFF7D0FFE06820F4405040F01000E06002
S31508000FB0A06AA0612069E062606044F24001E068CE
S31508000FC08843E06010BD000010000200002801D030
S31508000FD000F01CB87047000010B5014602A000F0EA
S31508000FE05DF8012010BD000053494752545245444C
S31508000FF03A2052656469726563743A2063616E27A4
S3150800100074206F70656E3A200000000001491820B0
S31508001010ABBEFEE72600020000210160C0E9011010
S31508001020704710207047034640688C46002818BF52
S3150800103088423CBF03464068F8D31868184488427B
S3150800104007D00CF1030020F00700001D411A521AC0
S315080010500146081D0A60FFF766BC10B50146C2685E
S31508001060900703D0900607D5886A0AE000F03EF894
S3150800107001210160881E10BD8B69486818440B69F8
S31508001080C01A91F848301BB191F84910401A10BDA2
S315080010901103FCD50028FADD401E10BD70B50546C3
S315080010A00C460A2000E06D1C00F018F835B12878C7
S315080010B00028F8D102E0641C00F010F814B120787A
S315080010C00028F8D1BDE870400A2000F007B810B52E
S315080010D000F010F8BDE81040FFF778BF08B569467C
S315080010E08DF800000320ABBE08BD70470048704766
S315080010F044A4002010B5012805D0002103A0FFF75D
S31508001100CDFF012010BD09A1F8E700005349475259
S31508001110544D454D3A204F7574206F6620686561B9
S3150800112070206D656D6F7279000000003A20486581
S315080011306170206D656D6F727920636F727275705C
S315080011407465640010B500F001F810BD10B50948C3
S31508001150094908604FF461404860002106488160EB
S31508001160C160016181610C2141610021C16100F00A
S31508001170C9FF10BD00440040C4A2002010B50120DC
S3150800118000F018F80748006803F0A8FC04463CB1CC
S315080011904FF0805004490860BFF34F8FBFF36F8F3D
S315080011A010BD00007800002004ED00E072B600BF14
S315080011B0FEE7704710B5044604480068204020B191
S315080011C0024804602046FFF7F4FF10BD143C0140B6
S315080011D0F8B502460B460025002400200021DCE075
S315080011E0012606FA01F51E6806EA0504AC4273D123
S315080011F05E68012E08D05E68022E05D05E68112E44
S3150800120002D05E68122E13D190684F000326BE40A6
S31508001210B0434F00DE68BE403043906050680126F8
S315080012208E40B0431E79C6F300168E403043506098
S31508001230D0684F000326BE40B0434F009E68BE40AC
S315080012403043D0605E68022E02D05E68122E13D13B
S31508001250CF0802F1200656F827004E07F70E0F268C
S31508001260BE40B0434F07FF0E1E69BE403043CF084D
S3150800127002F1200646F8270010684F000326BE40F4
S31508001280B0431E7906F003064F00BE403043106097
S315080012905E6806F08056B6F1805F7DD100BF0026F5
S315080012A00096404E366846F480463E4F3E603E46BF
S315080012B0366806F48046009600BF00BF3A4E8F088F
S315080012C056F827008E07370F0F26BE40B043374E15
S315080012D0B24202D1002624E05EE0354EB24201D188
S315080012E001261EE0334EB24201D1022619E0324EE3
S315080012F0B24201D1032614E0304EB24201D104268F
S315080013000FE02F4EB24201D105260AE02D4EB24219
S3150800131001D1062605E02C4EB24201D1072600E08F
S3150800132008268F073F0FBE4030431F4E8F0846F8EA
S315080013302700264E3068A0435E6806F48036B6F568
S31508001340803F00D12043214E3060361D3068A043CF
S315080013505E6806F40036B6F5003F00D120431B4E02
S31508001360361D3060361D3068A0435E6806F4801668
S31508001370B6F5801F00D12043144E08363060361D5E
S315080013803068A0435E6806F40016B6F5001F00D163
S3150800139020430E4E0C363060491C1029FFF420AF4E
S315080013A0F8BD0000443802400838014000000240F9
S315080013B00004024000080240000C024000100240EF
S315080013C00014024000180240001C0240003C014084
S315080013D042690A408A4202D10A04826100E08161B8
S315080013E070470AB1816101E00B0483617047000010
S315080013F001480068704700007C00002010B50A48C4
S31508001400006840F40070084908600846006840F41F
S3150800141080600860032000F083F80F2000F006F8CB
S3150800142000F02AF8002010BD003C024070B50446C2
S315080014300E4800784FF47A71B1FBF0F00C49096850
S31508001440B1FBF0F5284600F003FC08B1012070BD99
S31508001450102C07D200222146501E00F022F805481B
S31508001460046001E00120F2E70020F0E78400002094
S3150800147088000020800000207047014608460028A2
S315080014800DDB00BF00BF00F01F0301229A4043098D
S315080014909B0003F1E023C3F8002100BF00BF00BF93
S315080014A070472DE9F05F80460D461646002701F085
S315080014B00BFA074639462A46334601F00700C0F1BB
S315080014C0070ABAF1040F02D94FF0040A01E0C0F185
S315080014D0070AD14600F1040ABAF1070F02D24FF003
S315080014E0000A01E0A0F1030AD4464FF0010A0AFAFD
S315080014F009FAAAF1010A0AEA020A0AFA0CFA4FF0EC
S31508001500010B0BFA0CFBABF1010B0BEA030B4AEAD6
S315080015100B042146404601F0DFF9BDE8F09F0000C4
S3150800152000BF00F00702064B19684FF6FF03194083
S31508001530044B0B4343EA0221014B196000BF704775
S315080015400CED00E00000FA0570B504460D460CB92E
S31508001550012070BD5848006800F00F00A84209D263
S3150800156055490D700846006800F00F00A84201D0E2
S315080015700120EEE7207800F0020002281DD120782D
S3150800158000F00400042805D14C48006840F4E050F7
S315080015904A490860207800F00800082805D147481D
S315080015A0006840F46040454908604448006820F0F7
S315080015B0F000A168084341490860207800F001005E
S315080015C0A8B36068012807D13C4808380068C0F30A
S315080015D04040B8B90120BCE76068022802D06068BC
S315080015E0032807D1354808380068C0F3406048B971
S315080015F00120AEE7314808380068C0F3400008B952
S315080016000120A6E72D48006820F00300616808431A
S315080016102A490860FFF7ECFE064609E0FFF7E8FEF0
S31508001620801B41F28831884202D9032091E707E0FE
S315080016302248006800F00C006168B0EB810FEDD11C
S315080016401D48006800F00F00A84209D91A490D7014
S315080016500846006800F00F00A84201D0012078E78C
S31508001660207800F00400042807D11448006820F404
S31508001670E050E168084311490860207800F0080046
S31508001680082808D10D48006820F46040216940EA1E
S31508001690C1000A49086000F03FF808490968C1F323
S315080016A00311074A515CC8400649086006480068A5
S315080016B0FFF7BCFE00204CE7003C02400838024019
S315080016C08D4C000888000020800000200148006832
S315080016D0704700008800002000B5FFF7F7FF0449AF
S315080016E00968C1F38221034A515CC84000BD000065
S315080016F0083802409D4C000800B5FFF7E7FF04498B
S315080017000968C1F34231034A515CC84000BD000074
S31508001710083802409D4C00082DE9F04700240025B2
S315080017200026A1462548006800F00C0020B10428D0
S3150800173005D008283AD105E0DFF8849039E0DFF8CB
S31508001740849036E01D48001F006800F03F041B48DF
S31508001750001F006800F4800078B11A481749091F6D
S315080017600968C1F38811A0FB0170014622460023CF
S315080017703846FEF7E5FD05460EE011480F49091FF4
S315080017800968C1F38811A0FB0170014622460023AF
S315080017903846FEF7D5FD05460848001F0068C0F321
S315080017A00140401C4600B5FBF6F902E0DFF8109050
S315080017B000BF00BF4846BDE8F08700000838024071
S315080017C00024F40040787D01F8B504460CB90120E0
S315080017D0F8BD207800F00100002874D0F9480068A8
S315080017E000F00C0004280DD0F648006800F00C0044
S315080017F0082813D1F348001F006800F48000B0F5EC
S31508001800800F0BD1EF4808380068C0F34040002825
S3150800181059D06068002856D10120D9E700BF606812
S31508001820B0F5803F08D1E7480838006840F48030B2
S31508001830E449083908601EE06068B0F5A02F0DD1AC
S31508001840E0480838006840F48020DE490839086016
S315080018500846006840F4803008600CE0D94808382B
S31508001860006820F48030D7490839086008460068BF
S3150800187020F48020086000BF606890B1FFF7B8FDCB
S31508001880054606E0FFF7B4FD401B642801D903208E
S315080018909EE7CC4808380068C0F340400028F1D0DD
S315080018A011E0FFF7A5FD054606E0FFF7A1FD401B81
S315080018B0642801D903208BE7C24808380068C0F3BA
S315080018C040400028F1D1207800F0020002285FD1BC
S315080018D0BC48006800F00C0058B1BA48006800F02F
S315080018E00C0008281CD1B748001F006800F48000C7
S315080018F0B0B9B44808380068C0F3400020B1E068C1
S31508001900012801D0012063E7AE480838006820F0B6
S31508001910F800216940EAC100AA490839086037E099
S31508001920E06800B30120A8490860FFF761FD054695
S3150800193006E0FFF75DFD401B022801D9032047E7B3
S31508001940A04808380068C0F340000028F1D09D4838
S315080019500838006820F0F800216940EAC100994972
S315080019600839086014E0002097490860FFF740FD31
S31508001970054606E0FFF73CFD401B022801D9032077
S3150800198026E7904808380068C0F340000028F1D1DF
S31508001990207800F0080008282CD16069A8B1012039
S315080019A08A490860FFF724FD054606E0FFF720FD93
S315080019B0401B022801D903200AE782486C300068D8
S315080019C0C0F340000028F1D014E000207F490860E9
S315080019D0FFF70EFD054606E0FFF70AFD401B022845
S315080019E001D90320F4E677486C300068C0F340005C
S315080019F00028F1D1207800F00400042870D10027CF
S31508001A0070483830006800F0805090B900BF002058
S31508001A1000906C483830006840F080506949383189
S31508001A2008600846006800F08050009000BF00BFBC
S31508001A3001276748006800F48070B0B964480068F8
S31508001A4040F4807062490860FFF7D2FC054606E05C
S31508001A50FFF7CEFC401B022801D90320B8E65C48F4
S31508001A60006800F480700028F2D000BFA068012842
S31508001A7008D154486830006840F00100514968317F
S31508001A8008601DE0A06805280DD14E48683000683A
S31508001A9040F004004B49683108600846006840F089
S31508001AA0010008600CE047486830006820F0010033
S31508001AB04449683108600846006820F00400086058
S31508001AC000BFA068A8B1FFF793FC054609E0FFF739
S31508001AD08FFC401B41F28831884202D9032077E601
S31508001AE026E0384868300068C0F340000028EED089
S31508001AF013E0FFF77DFC054608E0FFF779FC401B7D
S31508001B0041F28831884201D9032061E62D486830C0
S31508001B100068C0F340000028EFD1012F07D12948FB
S31508001B203830006820F0805026493831086000BFF8
S31508001B30A069002845D02348006800F00C00082852
S31508001B405DD0A069022845D100201F490866FFF725
S31508001B504FFC054606E0FFF74BFC401B022801D95F
S31508001B60032035E6174808380068C0F340600028A7
S31508001B70F1D1D4E907010843616A40EA81110122DB
S31508001B80A06AC2EB500041EA00412C20005D41EA00
S31508001B9000600C49091F086001200B490866FFF719
S31508001BA027FC054606E0FFF723FC401B022801D95F
S31508001BB003200DE6034808380068C0F34060002893
S31508001BC0F1D03FE00838024000004742800E474205
S31508001BD00070004000201C490866FFF709FC05460E
S31508001BE006E0FFF705FC401B022801D90320EFE5B4
S31508001BF016480068C0F340600028F2D122E0A069C8
S31508001C00012800D1E4E51148001D066806F48001A4
S31508001C10E069814214D106F03F01206A81420FD162
S31508001C2047F6C0703040616A884209D106F44031EF
S31508001C30A06A814204D106F07061E06A814201D04F
S31508001C400120C5E50020C3E50000474200380240F0
S31508001C5070B504462546681EB0F1807F01D3012081
S31508001C600FE0681E4FF0E02148610F214FF0FF306A
S31508001C7000F032FE00204FF0E0218861072008615D
S31508001C80002070BD7047704730B502460B4600BF4E
S31508001C9092F83C00012801D1022030BD012082F8CB
S31508001CA03C0000BF022082F83D00106844681068B6
S31508001CB0816824F070041868044310684460184D5D
S31508001CC01068A8421BD01068B0F1804F17D0154D88
S31508001CD01068A84213D0144D1068A8420FD0134DAF
S31508001CE01068A8420BD0124D1068A84207D0114DB3
S31508001CF01068A84203D0104D1068A84205D121F0FB
S31508001D0080015868014310688160012082F83D000F
S31508001D1000BF002082F83C0000BF00BFBDE70000FE
S31508001D20000001400004004000080040000C00408C
S31508001D3000040140004001400018004010B5044668
S31508001D400CB9012010BD94F83D0028B9002084F88C
S31508001D503C00204600F00CF8022084F83D00211DC6
S31508001D60206800F015FB012084F83D000020E9E713
S31508001D7038B504462068B0F1804F17D100BF00205F
S31508001D8000900B48006840F00100094908600846C1
S31508001D90006800F00100009000BF00BF0022AB21E0
S31508001DA01C20FFF77EFB1C20FFF767FB38BD0000F1
S31508001DB040380240014691F83D00012801D0012033
S31508001DC07047022081F83D000868C06840F00100AD
S31508001DD00B68D8601A4B086898421BD00868B0F19F
S31508001DE0804F17D0174B0868984213D0164B0868CF
S31508001DF098420FD0154B086898420BD0144B0868C8
S31508001E00984207D0134B0868984203D0124B0868CB
S31508001E1098420CD10868806800F00702062A0CD0A0
S31508001E200868006840F001000B68186005E008685B
S31508001E30006840F001000B6818600020C0E7000049
S31508001E40000001400004004000080040000C00406B
S31508001E500004014000400140001800402DE9F0410F
S31508001E6004460D4600BF94F83C00012802D1022022
S31508001E70BDE8F081012084F83C0000BF022084F808
S31508001E803D002068866826F0770626F47F46206897
S31508001E9086602868502833D00CDC202850D004DC13
S31508001EA000284BD0102851D149E0302849D0402885
S31508001EB04CD139E060282DD0702807D0B0F5805F66
S31508001EC003D0B0F5005F41D10DE040E0D5E902133B
S31508001ED06A68206800F0C8FA2068866846F07706BF
S31508001EE02068866033E0D5E902136A68206800F046
S31508001EF0BBFA2068806840F480402168886026E044
S31508001F00EA686968206800F0C3FA5021206800F082
S31508001F10B6FA1CE0EA686968206800F0CCFA602125
S31508001F20206800F0ACFA12E0EA686968206800F0F8
S31508001F30AFFA4021206800F0A2FA08E000BF00BF0F
S31508001F4000BF2968206800F09AFA00E000BF00BFC9
S31508001F50012084F83D0000BF002084F83C0000BF43
S31508001F6000BF85E7704710B5044620680069C0F3CE
S31508001F704000D8B12068C068C0F34000B0B16FF027
S31508001F80020021680861012020772068806900F036
S31508001F90030018B12046FFF7E5FF05E0204600F0EC
S31508001FA0ADF8204600F0ABF80020207720680069DD
S31508001FB0C0F38000D8B12068C068C0F38000B0B113
S31508001FC06FF0040021680861022020772068806984
S31508001FD000F4407018B12046FFF7C4FF05E020461C
S31508001FE000F08CF8204600F08AF800202077206858
S31508001FF00069C0F3C000D8B12068C068C0F3C0004B
S31508002000B0B16FF0080021680861042020772068C5
S31508002010C06900F0030018B12046FFF7A3FF05E0EA
S31508002020204600F06BF8204600F069F8002020777B
S3150800203020680069C0F30010D8B12068C068C0F3F2
S315080020400010B0B16FF010002168086108202077F1
S315080020502068C06900F4407018B12046FFF782FF77
S3150800206005E0204600F04AF8204600F048F800202F
S3150800207020772068006900F0010058B12068C06820
S3150800208000F0010030B16FF00100216808612046B8
S3150800209000F036F820680069C0F3C01058B120680F
S315080020A0C068C0F3C01030B16FF0800021680861C5
S315080020B02046FFF7E7FD20680069C0F3801058B195
S315080020C02068C068C0F3801030B16FF04000216806
S315080020D00861204600F015F820680069C0F3401032
S315080020E058B12068C068C0F3401030B16FF02000C6
S315080020F0216808612046FFF7C6FD10BD7047704786
S315080021007047704710B504460CB9012010BDA06988
S3150800211000B100E000BF94F8390028B9002084F81F
S315080021203800204600F027F8242084F83900206873
S31508002130C06820F400502168C860204600F0D0F935
S315080021402068006920F49040216808612068406989
S3150800215020F02A00216848612068C06840F40050D1
S315080021602168C8600020E063202084F8390084F8DC
S315080021703A000020CAE770470A49096801F00101D8
S3150800218071B108498039096801F0010141B100BF00
S315080021904FF0604109680029FAD04FF0604210708C
S315080021A070470000800E00E000B587B0002003905D
S315080021B0049005900690019002904FF080401449D3
S315080021C008604AF21040486000211148816040F2D8
S315080021D0CF71C160002101618161FFF7AFFD08B1D0
S315080021E0FEF7E4FF4FF48050039003A90848FFF771
S315080021F035FE08B1FEF7DAFF00200190029001A92A
S315080022000348FFF741FD08B1FEF7D0FF07B000BD50
S3150800221004A2002010B500BFA02080F31188BFF3E8
S315080022204F8FBFF36F8F00BF02F07CFA18B14FF0E3
S3150800223080500449086000BF002080F3118800BF61
S3150800224010BD000004ED00E000B593B0302107A8EA
S31508002250FEF7A4F9142102A8FEF7A0F900BF002092
S3150800226001902348006840F08050214908600846DC
S31508002270006800F08050019000BF00BF00BF00203A
S3150800228001901C48006840F480401A4908600846D6
S31508002290006800F48040019000BF00BF012007904D
S315080022A00004089002200D9041050E9108210F9117
S315080022B04FF4A8711091022111910421129107A8D7
S315080022C0FFF782FA08B1FEF771FF0F20029002208D
S315080022D00390002004904FF4A05005900690052125
S315080022E002A8FFF731F908B1FEF760FF13B000BD89
S315080022F040380240007000401448006840F47000FE
S31508002300124908601248006840F001001049086048
S3150800231000200F49083108600D4800680D4908403B
S315080023200B4908600C48091D0860081F006820F45E
S315080023308020091F0860002005490C3108604FF00D
S3150800234000600249803908607047000088ED00E0A7
S3150800235000380240FFFFF6FE1030002410B5094889
S31508002360FFF701FE0848006802F0B8FB04463CB1D6
S315080023704FF0805005490860BFF34F8FBFF36F8F4A
S3150800238010BD000004A200207400002004ED00E047
S3150800239010B50268294B98420ED0B0F1804F0BD089
S315080023A0274B984208D0274B984205D0264B98428F
S315080023B002D0264B984203D122F070024B681A438A
S315080023C01E4B984220D0B0F1804F1DD01C4B98422E
S315080023D01AD01C4B984217D01B4B984214D01B4B53
S315080023E0984211D01A4B98420ED01A4B98420BD0ED
S315080023F0194B984208D0194B984205D0184B984269
S3150800240002D0184B984203D122F44072CB681A4383
S3150800241022F080034C6943EA040202608B68C362B7
S315080024200B688362054B984202D0084B984201D14B
S315080024300B6903630123436110BD000000000140DE
S315080024400004004000080040000C00400004014061
S315080024500040014000440140004801400018004087
S31508002460001C00400020004030B50C46816821F46D
S315080024707F4142EA032525432943816030BD0A4648
S31508002480816821F0700142F00703194381607047A3
S3150800249030B50B461446026A056A25F00105056241
S315080024A0816921F0F00141EA041122F00A021A4377
S315080024B08161026230BD30B50B461446056A25F0C7
S315080024C0100505628169026A21F4704141EA043106
S315080024D022F0A00242EA03128161026230BD0000C6
S315080024E02DE9F84F04462068006920F44050E16859
S315080024F00843216808612169A0680843616908439F
S31508002500E169084300902068C06849F20C61884375
S31508002510009908432168C8602068406920F4407023
S31508002520A169084321684861E069B0F5004F75D193
S31508002530E3492068884203D0E249206888426FD17F
S31508002540FFF7DAF8814602206168A0FB01510B46C5
S315080025501920A9FB00712A463846FDF7F1FE6421C9
S31508002560B0FBF1F04FEA001A02206168A0FB0151A6
S315080025700B461920A9FB00712A463846FDF7E0FEEE
S31508002580074602206168A0FB01510B461920A9FBEA
S3150800259000B12A465846FDF7D3FE6421B0FBF1F098
S315080025A000EBC00101EB0010A7EB8000322101EB24
S315080025B0C0006421B0FBF1F000F0F8000AEB400A15
S315080025C002206168A0FB01510B461920A9FB007186
S315080025D02A463846FDF7B4FE074602206168A0FB86
S315080025E001510B461920A9FB00B12A465846FDF7AA
S315080025F0A7FE6421B0FBF1F000EBC00101EB00106F
S31508002600A7EB8000322101EBC0006421B0FBF1F09A
S3150800261000F007005044216888604FE16EE0FFE74C
S31508002620FFF75AF8814602206168A0FB01510B4664
S315080026301920A9FB00712A463846FDF781FE642158
S31508002640B0FBF1F04FEA001A02206168A0FB0151C5
S315080026500B461920A9FB00712A463846FDF770FE7D
S31508002660074602206168A0FB01510B461920A9FB09
S3150800267000B12A465846FDF763FE6421B0FBF1F027
S3150800268000EBC00101EB0010A7EB8000322101EB43
S31508002690C0006421B0FBF1F000F0F8000AEB400A34
S315080026A002206168A0FB01510B461920A9FB0071A5
S315080026B02A463846FDF744FE074602206168A0FB15
S315080026C0015003461920A9FB00B12A465846FDF7D2
S315080026D037FE6421B0FBF1F000EBC00101EB0010FE
S315080026E0A7EB8000322101EBC0006421B0FBF1F0BA
S315080026F000F00700504421688860DFE070492068D0
S31508002700884203D06F49206888426BD1FEF7F4FFF0
S31508002710814604206168A0FB01510B461920A9FBDC
S3150800272000712A463846FDF70BFE8246042061688A
S31508002730A0FB01510B461920A9FB00712A46384611
S31508002740FDF7FEFD6421B0FBF1F000EBC00101EBE3
S315080027500010AAEB8000322101EB00106421B0FBC7
S31508002760F1F000F0F00A04206168A0FB015003466E
S315080027701920A9FB00712A463846FDF7E1FD6421B8
S31508002780B0FBF1F00AEB001A04206168A0FB0151C6
S315080027900B461920A9FB00712A463846FDF7D0FDDD
S315080027A0074604206168A0FB015003461920A9FBCF
S315080027B000B12A465846FDF7C3FD6421B0FBF1F087
S315080027C000EBC00101EB0010A7EB8000322101EB02
S315080027D000106421B0FBF1F000F00F0050442168AE
S315080027E088606BE0FEF778FF814604206168A0FBED
S315080027F0015003461920A9FB00712A463846FDF701
S315080028009FFD824604206168A0FB015003461920FB
S31508002810A9FB00712A463846FDF792FD6421B0FBF4
S31508002820F1F000EBC00101EB0010AAEB80003221A9
S3150800283001EB00106421B0FBF1F000F0F00A04206F
S315080028406168A0FB015003461920A9FB00712A46BE
S315080028503846FDF775FD6421B0FBF1F00AEB001A66
S3150800286004206168A0FB017003461920A9FB0050EB
S3150800287001463A462846FDF763FD07460420616887
S31508002880A0FB015003461920A9FB00B12A46584669
S31508002890FDF756FD6421B0FBF1F000EBC00101EB3A
S315080028A00010A7EB8000322101EB00106421B0FB79
S315080028B0F1F000F00F00504421688860BDE8F88FF9
S315080028C0001001400014014002480068C0F30220CD
S315080028D0704700000CED00E010B5002804DB0A077D
S315080028E0130E054A135406E00A07140E034A00F0AD
S315080028F00F031B1FD45410BD00E400E018ED00E0E0
S3150800290001466FF40040084420B1012804D002288B
S3150800291006D103E0002070470020FCE70020FAE714
S315080029204FF0FF30F7E701466FF40040084420B146
S31508002930012804D0022806D103E0002070470020B1
S31508002940FCE70020FAE70020F8E701466FF40040AC
S31508002950084420B1012804D0022806D103E001204A
S3150800296070470120FCE70120FAE70020F8E700009D
S3150800297070B504460D4614B94FF0FF3070BD207887
S315080029803A281AD10EA12046FDF730FE10B948F2B2
S315080029900100F3E70CA12046FDF728FE10B948F21E
S315080029A00200EBE70AA12046FDF720FE10B948F21F
S315080029B00300E3E74FF0FF30E0E74FF0FF30DDE7D5
S315080029C03A535444494E00003A5354444F55540020
S315080029D03A5354444552520002466FF4004010449C
S315080029E020B1012805D0022809D105E04FF0FF30B3
S315080029F070474FF0FF30FBE74FF0FF30F8E74FF036
S31508002A00FF30F5E72DE9F04106460C46154698468F
S31508002A106FF40040304420B1012806D0022811D1B5
S31508002A200EE04FF0FF30BDE8F08105E014F8017BB9
S31508002A30384600F0EBFE6D1E002DF7D10020F2E7B8
S31508002A400020F0E74FF0FF30EDE78A68002A01DC46
S31508002A50FDF790BF521E8A604A68C0B2531C4B608D
S31508002A601070704700B587B0142102A8FDF796FDCF
S31508002A7000BF002001903048006840F080002E49D1
S31508002A8008600846006800F08000019000BF00BF9B
S31508002A9000BF002001900846006840F00800086062
S31508002AA00846006800F00800019000BF00BF00BF9C
S31508002AB0002001900846006840F0010008600846BA
S31508002AC0006800F00100019000BF00BF00BF0020B1
S31508002AD001900846006840F0020008600846006851
S31508002AE000F00200019000BF00BF012002901348C9
S31508002AF003900020049002A91148FEF769FB002202
S31508002B004FF470410F48FEF76CFC4FF4704002908A
S31508002B1001200390002004900220059002A909488C
S31508002B20FEF756FB0022AA210620FEF7BAFC06206D
S31508002B30FEF7A3FC07B000BD3038024000001110B4
S31508002B4000000240000C02401CB5FEF757FCFFF7D8
S31508002B507BFBFFF787FFFFF727FBFEF7F3FA19A0C2
S31508002B60FDF766FC0020022103466422CDE9001029
S31508002B7020A1244801F090FD00200121034664228B
S31508002B80CDE9001020A1254801F086FD2448012141
S31508002B9000236422CDE9001022A1284801F07CFD1B
S31508002BA02748012100236422CDE9001025A12A48DF
S31508002BB001F072FD2948FFF7FDF801F0B7F800BFEC
S31508002BC0FEE700004672656552544F532072756ED3
S31508002BD06E696E67206F6E2053544D33324634301B
S31508002BE03720446973636F7665727920426F617224
S31508002BF0640A00004C454420626C696E6B696E6716
S31508002C0000000000713C0008436F6D6D756E6963C6
S31508002C106174696F6E207461736B0000493B00082C
S31508002C2078000020627574746F6E20747269676725
S31508002C3065726564207461736B000000593800087A
S31508002C407400002074696D657248616E646C652055
S31508002C507461736B00000000513F000804A2002055
S31508002C602DE9F04105460E461C4807681C480068D1
S31508002C70001D00F0D1FD50B91948006890F82C10D5
S31508002C800120884017490968814316480160681C75
S31508002C9038B936B112480168091D134800F022FEFA
S31508002CA01AE07C190E4800684460BC4207D20C48FA
S31508002CB00168091D0D48006800F0FAFD0CE0084897
S31508002CC00168091D0A48006800F0F2FD0948006815
S31508002CD0844201D207480460BDE8F0811400002050
S31508002CE00000002018000020C8010020080000206D
S31508002CF0040000203000002010B5044600F0FEFD58
S31508002D0024480068401C234908602348006840B9E5
S31508002D10214804600846006801280DD100F0DAF958
S31508002D200AE01E48006838B91B480068C06AE16AAC
S31508002D30884201D81848046019480068401C184998
S31508002D40086008460068206494F82C100120884022
S31508002D5014490968084313490860E16A01EB8101CF
S31508002D60114A02EB8100211D00F0BCFD00F0F2FDC6
S31508002D700A48006868B108480068C06AE16A88427B
S31508002D8007D24FF0805009490860BFF34F8FBFF351
S31508002D906F8F10BD10000020000000201C000020CE
S31508002DA02C00002018000020D800002004ED00E0C8
S31508002DB010B500F0A3FD10480068D0B90F4800F020
S31508002DC067FD0F4800F064FD0C480E4908600C4882
S31508002DD00D49086000220C21052001F08BF90649EF
S31508002DE008600846006820B108A10348006800F09A
S31508002DF06FFE00F0AFFD10BD44000020DC0100208E
S31508002E00F00100203C00002040000020546D725163
S31508002E100000000010B516E000F070FD0C48C06810
S31508002E20C468201D00F0F8FC0A480068401E0949DD
S31508002E30086009480068401E0749086000F08AFDD6
S31508002E40204600F05FF8044800680028E4D110BD69
S31508002E50B4010020100000200C00002070B50446C4
S31508002E600D46206C70B1216CE0680144E160D4E93C
S31508002E700210884201D32168E1602846226CE16885
S31508002E80FDF73FFB70BD2DE9F04104460F46154698
S31508002E904FF00008A66B206C48B9206800282CD192
S31508002EA0A06801F0E3FC80460020A06025E07DB91B
S31508002EB03946226C6068FDF724FB216C606808447B
S31508002EC06060D4E90101884217D32068606014E085
S31508002ED03946226CE068FDF714FB216CE068411A5C
S31508002EE0E1602168E068884203D2216CA068411A33
S31508002EF0E160022D01D106B1761E701CA063404622
S31508002F00BDE8F08110B50446206B00F043FD20466D
S31508002F1000F040FD10BD00000146084A126812681C
S31508002F200AB9012200E000220A600A6822B9034AA7
S31508002F301268D268106800E0002070473C00002044
S31508002F4030B54FF42043174800F007042CB1C01DD4
S31508002F5020F00700134C041B1B1B0246124C226070
S31508002F600024114D6C60D018083820F007000F4C6B
S31508002F70206000240D4D2D686C600C4D2D682C606A
S31508002F801146441A4C60094C24680C60084D4C687C
S31508002F902C60084D4C682C604FF00044064D2C60A0
S31508002FA030BD000004020020500000205800002018
S31508002FB0600000205C0000206400002000BFFFF7CE
S31508002FC029FF07480068012807D94FF080500549AE
S31508002FD00860BFF34F8FBFF36F8F00F031FCEEE749
S31508002FE0D800002004ED00E02DE9F04106460D4624
S31508002FF017469846069C0DB9246000E02760E663EC
S3150800300025640121204601F0A3F884F84C80BDE828
S31508003010F0812DE9F05F82460E4690469B460A9F50
S315080030200C9C4FEA8801A522206BFDF7AFFAA8F1A0
S315080030300100216B01EB800929F0070909F0070057
S3150800304008B9012000E0002058B900BFA02080F38D
S315080030501188BFF34F8FBFF36F8F00BF00BF00BF4C
S31508003060FDE786B1002507E0715D04F1340041559E
S31508003070705D00B902E06D1C0A2DF5D300BF002172
S315080030803D20015502E0002084F83400082F00D3C3
S315080030900727E762A7640020E064201D00F005FC0E
S315080030A004F1180000F001FC2461C7F10800A061D2
S315080030B064620020206584F854005A465146484602
S315080030C000F08EFB20600B9808B10B980460BDE8F1
S315080030D0F09F000010B5002407E004EB84010F4AB6
S315080030E002EB810000F0D4FB641C082CF5D30C48D5
S315080030F000F0CEFB0B4800F0CBFB0B4800F0C8FBFA
S315080031000A4800F0C5FB0A4800F0C2FB0448094912
S31508003110086004480849086010BD0000D80000206F
S31508003120780100208C010020A0010020B4010020B5
S31508003130C8010020040000200800002010B5014640
S31508003140164800E0006803688B42FBD302464368D2
S3150800315013448B4204D143684C68234443600146B8
S315080031600A464B6813440468A34211D10C4C036801
S315080031702468A34208D04B680468646823444B60FB
S3150800318003681B680B6005E0054B1B680B6001E0D4
S3150800319003680B60884200D0016010BD5000002013
S315080031A0580000202DE9F04104460D4616461F46F4
S315080031B04FF0000865602461B5420CD8F01BA16980
S315080031C0884202D34FF0010811E0211D0948006822
S315080031D000F06EFB0BE0BE4204D2BD4202D34FF0B4
S315080031E0010804E0211D0448006800F061FB404620
S315080031F0BDE8F081400000203C00002070B505467F
S3150800320000F07CFBA86B08B9012400E0002400F05C
S31508003210A1FB204670BD70B5054600F06FFBA86B94
S31508003220E96B884201D1012400E0002400F092FBFA
S31508003230204670BDF8B505460F461A480068C068AE
S31508003240C468201D00F0E8FA94F8280000F004008D
S31508003250F0B1A06941192B463A462046FFF7A2FF6E
S31508003260E0B1002003462A4601460090204601F0B8
S31508003270BBFC06465EB900BFA02080F31188BFF3E9
S315080032804F8FBFF36F8F00BF00BF00BFFDE705E09C
S3150800329094F8280020F0010084F828002046216AC6
S315080032A08847F8BD3C00002070B586B08DE00398CD
S315080032B00028FBDB059C606908B9012000E00020B6
S315080032C010B9201D00F0A8FA02A800F0DFF805469C
S315080032D003980A2877D2DFE800F00905073A42651D
S315080032E006083B4300BF00BF00BF00BF94F8280094
S315080032F040F0010084F828000498A2698118034662
S315080033002A462046FFF74EFF00B32046216A884723
S3150800331094F8280000F00400C0B10020009004983A
S31508003320A169421800231946204601F05DFC0646AD
S315080033305EB900BFA02080F31188BFF34F8FBFF39B
S315080033406F8F00BF00BF00BFFDE700BF3CE000BFB6
S3150800335094F8280020F0010084F8280034E000BF23
S3150800336094F8280040F0010084F828000498A06129
S31508003370A06908B1012000E0002058B900BFA020CC
S3150800338080F31188BFF34F8FBFF36F8F00BF00BF65
S3150800339000BFFDE7A06941192B462A462046FFF7DC
S315080033A001FF11E094F8280000F0020020B9204639
S315080033B000F0F0FA06E006E094F8280020F0010094
S315080033C084F8280000E000BF00BF002203A90448D3
S315080033D0006801F061F800287FF469AF06B070BD97
S315080033E044000020F8B505460C4600F063FD684623
S315080033F000F04CF80646009820BB44B9B54206D8FA
S3150800340001F0E8FA31462846FFF714FF1CE03CB104
S315080034100E480068006808B9012000E0002004464C
S31508003420A91B22460A48006800F068FB01F0D2FA98
S3150800343050B94FF0805007490860BFF34F8FBFF36C
S315080034406F8F01E001F0C6FAF8BD000040000020C9
S315080034504400002004ED00E00A490968096809B932
S31508003460012100E0002121B14FF0FF31064A116029
S3150800347006E004490968C968C868034A41681160D2
S3150800348070470000040000203000002070B5044694
S3150800349001F042F9054607480068854204D200F063
S315080034A00BF80120206001E000202060014805603B
S315080034B0284670BD4C0000202DE9F84335E0254824
S315080034C00068C068056823480068C068C468201D8D
S315080034D000F0A2F92046216A884794F8280000F0EF
S315080034E0040010B3A0694619AE4207D96660246184
S315080034F0211D1848006800F0DBF916E00020034695
S315080035002A4601460090204601F06EFB07465FB941
S3150800351000BFA02080F31188BFF34F8FBFF36F8FD2
S3150800352000BF00BF00BFFDE700BF0A48006800688B
S3150800353008B9012000E000200028C0D00548D0F8CE
S31508003540008005480068034908600348C0F8008001
S31508003550BDE8F8833C000020400000200F480068C2
S31508003560401C08B9012000E0002058B900BFA0207F
S3150800357080F31188BFF34F8FBFF36F8F00BF00BF73
S3150800358000BFFDE700BFA02080F31188BFF34F8F6F
S31508003590BFF36F8F00BF00BFFEE700006800002082
S315080035A010B50246002011465AB900BFA02383F37E
S315080035B01188BFF34F8FBFF36F8F00BF00BF00BFE7
S315080035C0FDE70C4C4B69A34201D1012300E000231F
S315080035D073B1094C8B6AA34201D1012300E0002391
S315080035E033B98B6A0BB9012300E0002303B101202C
S315080035F010BD0000C8010020A001002008B500BFCA
S315080036006846FFF789FC044620460099FFF7EAFE5C
S31508003610FFF74AFEF4E770B5044600F06FF994F92F
S31508003620455010E0606A08B9012000E0002038B96A
S3150800363004F1240001F080F918B100F031FB00E034
S3150800364003E0681E45B2002DECDC00BFFF2084F8BD
S31508003650450000F07FF900F051F994F9445010E064
S31508003660206908B9012000E0002048B904F11000DB
S3150800367001F062F908B100F013FB681E45B200E0DC
S3150800368001E0002DECDC00BFFF2084F8440000F0C8
S3150800369061F970BD2DE9F04104464FF0000800F0CD
S315080036A009FC4A48006808B9FFF74AFC4848006818
S315080036B0204000286DD1DCB1083404F00700B8B109
S315080036C004F00700C0F10800044404F0070008B934
S315080036D0012000E0002058B900BFA02080F311881F
S315080036E0BFF34F8FBFF36F8F00BF00BF00BFFDE76B
S315080036F0002C4ED03748006884424AD8364E3046A9
S31508003700056801E02E462D686868A04202D228683E
S315080037100028F7D12D48006885423AD0306800F174
S315080037200808286830606868001B10281AD92F19FD
S3150800373007F0070008B9012000E0002058B900BFCB
S31508003740A02080F31188BFF34F8FBFF36F8F00BFA0
S3150800375000BF00BFFDE76868001B78606C603846EC
S31508003760FFF7ECFC1B4968680968081A19490860DC
S315080037700846006819490968884203D2154800684E
S315080037801649086012496868096808436860002095
S31508003790286001F01FF9B8F1000F01D100F05AF8BE
S315080037A008F0070008B9012000E0002058B900BF5A
S315080037B0A02080F31188BFF34F8FBFF36F8F00BF30
S315080037C000BF00BFFDE74046BDE8F0815800002075
S315080037D0640000205C0000205000002060000020EB
S315080037E0001F4FF080730360001F21F00103036080
S315080037F0001F054B036014380260001F6FF00203B8
S3150800380003602038704700005D35000800B50346A0
S315080038101846FEF7B1FC00BD01460A69D1E9013038
S315080038209860D1E9010358605068884201D18868D8
S315080038305060002008611068401E106010687047CC
S3150800384000BF02A0FCF7F4FDFBE7000069646C69A1
S315080038506E670A0000BFFEE70AE0002000F0B0FA33
S315080038604FF440410348FDF7B3FD03A0FCF7E0FD24
S31508003870F3E70000000C024045787465726E616CCF
S3150800388020496E746572727570740D0A0000000026
S3150800389000F1080141604FF0FF31816000F1080135
S315080038A0C160016100210160704700210161704714
S315080038B010B502460B685C1C0CB9106907E002F1EA
S315080038C0080000E04068446824689C42FAD94468C5
S315080038D04C604C68A160886041600A611468641C89
S315080038E0146010BD42684A6093688B60936859609B
S315080038F09160086103685B1C0360704700BFA020E5
S3150800390080F31188BFF34F8FBFF36F8F00BF0F4847
S315080039100068401C0D49086008460068012813D154
S315080039200B480068C0B208B9012000E0002058B969
S3150800393000BFA02080F31188BFF34F8FBFF36F8FAE
S3150800394000BF00BF00BFFDE7704700006800002009
S3150800395004ED00E00E48006858B900BFA02080F3C7
S315080039601188BFF34F8FBFF36F8F00BF00BF00BF33
S31508003970FDE707480068401E0549086008460068D4
S3150800398020B9002080F3118800BF00BF70470000EF
S315080039906800002070B506463546002E41D0083D21
S315080039A02C46204960680968084008B1012000E0F3
S315080039B0002058B900BFA02080F31188BFF34F8FAD
S315080039C0BFF36F8F00BF00BF00BFFDE7206808B9CF
S315080039D0012000E0002058B900BFA02080F311881C
S315080039E0BFF34F8FBFF36F8F00BF00BF00BFFDE768
S315080039F00C4960680968084098B1206888B909497F
S31508003A00606809688843606000F054FA064960688F
S31508003A1009680844044908602046FFF78FFB00F050
S31508003A20D9FF70BD640000205C00002000204FF024
S31508003A30E02108618861064800684FF47A71B0FB96
S31508003A40F1F0401E4FF0E0214861072008617047F9
S31508003A508800002070B5FCF74FFC0446102C17D3DD
S31508003A6004F1E02090F8F05316480078854201DB0F
S31508003A70012000E0002058B900BFA02080F311887B
S31508003A80BFF34F8FBFF36F8F00BF00BF00BFFDE7C7
S31508003A900D48006800F4E0600C490968884201D8BE
S31508003AA0012000E0002058B900BFA02080F311884B
S31508003AB0BFF34F8FBFF36F8F00BF00BF00BFFDE797
S31508003AC070BD00006C0000200CED00E070000020C6
S31508003AD0024600200BE0084B53F8303033B9064B4A
S31508003AE043F8301003EBC0035A6002E0401C082874
S31508003AF0F1D300BF70470000980000202DE9F0417F
S31508003B0005460E4617462C46FFF7F8FE94F944007C
S31508003B10401C10B9002084F8440094F94500401C64
S31508003B2010B9002084F84500FFF714FFA06B28B9E8
S31508003B303A46314604F1240000F0D6F82046FFF74D
S31508003B406AFDBDE8F081000003A400BF21460AA073
S31508003B50FCF76EFCFAE700005461736B20636F6D27
S31508003B606D756E69636174696F6E2069732072750D
S31508003B706E6E696E670A000025730A002DE9F04724
S31508003B8004460F464FF000095CB900BFA02080F339
S31508003B901188BFF34F8FBFF36F8F00BF00BF00BF01
S31508003BA0FDE70FB1012000E0002058B900BFA020B2
S31508003BB080F31188BFF34F8FBFF36F8F00BF00BF2D
S31508003BC000BFFDE72148006808B9012000E0002091
S31508003BD058B900BFA02080F31188BFF34F8FBFF3F9
S31508003BE06F8F00BF00BF00BFFDE700F063F91848FC
S31508003BF006682068C5192068B04207D92068A84217
S31508003C000BD9B54209D94FF0010906E02068A84248
S31508003C1001D8B54201D94FF001092560B9F1000F65
S31508003C2003D0A81B0021FFF71BF800F0D3FE80463F
S31508003C30B8F1000F07D14FF0805006490860BFF36E
S31508003C404F8FBFF36F8FBDE8F08700003800002064
S31508003C501400002004ED00E00349096801600349E7
S31508003C600968416070470000280000201400002001
S31508003C7008B500BF00F050FD009000BF04A0FCF797
S31508003C80D7FB4FF47A716846FFF778FFF6E700002E
S31508003C90426C696E6B696E67212121200A0000005B
S31508003CA001200149086070472400002070B50446C9
S31508003CB00D465CB900BFA02080F31188BFF34F8F73
S31508003CC0BFF36F8F00BF00BF00BFFDE7054801685F
S31508003CD018312046FFF7ECFD01212846FEF7C0FF04
S31508003CE070BD00000000002070B505460E4614465B
S31508003CF05DB900BFA02080F31188BFF34F8FBFF3D3
S31508003D006F8F00BF00BF00BFFDE707480168183185
S31508003D102846FFF7E7FD0CB14FF0FF36214630463F
S31508003D20FEF79EFF70BD0000000000201CB51D4870
S31508003D3000210B468222CDE900101BA11C4800F089
S31508003D40ABFC0446012C02D100F022FF0446012CEC
S31508003D5015D100BFA02080F31188BFF34F8FBFF3A2
S31508003D606F8F00BF4FF0FF301249086001201249DB
S31508003D70086000201149086000F004F911E0601C91
S31508003D8008B1012000E0002058B900BFA02080F348
S31508003D901188BFF34F8FBFF36F8F00BF00BF00BFFF
S31508003DA0FDE71CBD3400002049444C4500000000D6
S31508003DB0BD2F0008300000201C0000201400002041
S31508003DC070B50546FFF79AFD15B93248006800E058
S31508003DD028460446201DFFF71FFD78B9E06A00EB68
S31508003DE080002D4951F8200040B994F82C10012084
S31508003DF088402A490968814328480160A06A18B1A1
S31508003E0004F11800FFF708FD211D2548FFF76AFD94
S31508003E1094F85400012802D1002084F85400FFF7D2
S31508003E2099FD2048006828B1FFF768FDFFF714FBE5
S31508003E30FFF790FD1748006884422AD119480068A0
S31508003E40D8B11948006808B9012000E0002058B91F
S31508003E5000BFA02080F31188BFF34F8FBFF36F8F89
S31508003E6000BF00BF00BFFDE74FF080500F49086054
S31508003E70BFF34F8FBFF36F8F0BE0094800680C49FB
S31508003E800968884203D100200249086001E000F071
S31508003E9019F870BD00000020D80000201800002086
S31508003EA0C80100201C0000203800002004ED00E0B6
S31508003EB01000002002480068401C0149086070474D
S31508003EC0380000201D48006818B101201C49086008
S31508003ED033E000201A4908601A480068B0FA80F0F2
S31508003EE0C0F11F0101EB8100174A52F8200008B102
S31508003EF0012000E0002058B900BFA02080F31188F7
S31508003F00BFF34F8FBFF36F8F00BF00BF00BFFDE742
S31508003F1001EB81020C4B03EB820042685268426057
S31508003F2000F108024368934202D14268526842602F
S31508003F304268D268054B1A6000BF704738000020F7
S31508003F402400002018000020D800002000000020CF
S31508003F500AE00020FFF734FF4FF440510348FDF70D
S31508003F6037FA03A0FCF764FAF3E70000000C0240F6
S31508003F7054696D657220496E746572727570740D38
S31508003F800A0000001CB5544800685449884201D00C
S31508003F90012000E0002058B900BFA02080F3118856
S31508003FA0BFF34F8FBFF36F8F00BF00BF00BFFDE7A2
S31508003FB0494800684949491E884201D0012000E065
S31508003FC0002058B900BFA02080F31188BFF34F8F97
S31508003FD0BFF36F8F00BF00BF00BFFDE7404908462B
S31508003FE000780190FF200A46107008460078009075
S31508003FF09DF8000000F0F0009DF80020904201D1E5
S31508004000012000E0002058B900BFA02080F31188E5
S31508004010BFF34F8FBFF36F8F00BF00BF00BFFDE731
S315080040209DF8000000F0A0002E4A107007202E4AC6
S31508004030106009E02C480068401E2B4A10609DF865
S3150800404000004006000E00909DF8000000F0800079
S315080040508028EFD024480068C0F10700042801D161
S31508004060012000E0002058B900BFA02080F3118885
S31508004070BFF34F8FBFF36F8F00BF00BF00BFFDE7D1
S31508004080194800680002184A10601046008800F4B3
S31508004090E0601060124A019810700F4820300068DE
S315080040A040F470000C49203108600846006840F06A
S315080040B070400860FFF7BAFC00200C490860FCF75E
S315080040C0E3F80B48006840F0404009490860FCF7EF
S315080040D0C7F800201CBD000000ED00E071C20F41CA
S315080040E000E400E06C00002070000020680000205A
S315080040F034EF00E02DE9F84305460E4690460DB12B
S31508004100012000E0002058B900BFA02080F31188E4
S31508004110BFF34F8FBFF36F8F00BF00BF00BFFDE730
S315080041200EB9002701E005FB06F707F15000FFF777
S31508004130B1FA04464CB1A14609F1500943464A462C
S31508004140314628460094FEF74FFF2046BDE8F8831F
S3150800415070B505460E462C465CB900BFA02080F314
S315080041601188BFF34F8FBFF36F8F00BF00BF00BF2B
S31508004170FDE7FFF7C3FBD4E90F12206801FB020035
S31508004180A0600020A06320686060E06B401E226C7F
S31508004190216800FB0211E160FF2084F8440084F8DE
S315080041A045009EB9206908B9012000E00020A8B999
S315080041B004F1100000F0C0FB80B14FF080500949AF
S315080041C00860BFF34F8FBFF36F8F07E004F110004D
S315080041D0FFF75EFB04F12400FFF75AFBFFF7BAFB73
S315080041E0012070BD04ED00E02DE9FF4383B00646CB
S315080041F088461D464FF0000934465CB900BFA0202A
S3150800420080F31188BFF34F8FBFF36F8F00BF00BFD6
S3150800421000BFFDE7B8F1000F01D1206C08B90120F5
S3150800422000E0002058B900BFA02080F31188BFF332
S315080042304F8FBFF36F8F00BF00BF00BFFDE7022D92
S3150800424002D1E06B012801D1012000E0002058B915
S3150800425000BFA02080F31188BFF34F8FBFF36F8F85
S3150800426000BF00BF00BFFDE700F046FA08B9059891
S3150800427008B9012000E0002058B900BFA02080F34B
S315080042801188BFF34F8FBFF36F8F00BF00BF00BF0A
S31508004290FDE700BFFFF732FBA06BE16B884201D355
S315080042A0022D28D12A4641462046FEF7ECFD074650
S315080042B0606A08B9012000E0002068B904F124000A
S315080042C000F03AFB88B14FF0805032490860BFF3DE
S315080042D04F8FBFF36F8F08E03FB14FF080502D49E5
S315080042E00860BFF34F8FBFF36F8FFFF733FB0120D3
S315080042F007B0BDE8F083059818B9FFF72BFB002037
S31508004300F6E7B9F1000F04D101A8FFF7A5FC4FF0B5
S315080043100109FFF71FFBFFF7CDFDFFF7EFFA94F949
S315080043204400401C10B9002084F8440094F9450064
S31508004330401C10B9002084F84500FFF70BFB05A9BF
S3150800434001A800F061F9F0B92046FEF764FFA0B1B4
S3150800435004F110000599FFF7A9FC2046FFF75BF961
S3150800436000F038FB002895D14FF0805009490860C5
S31508004370BFF34F8FBFF36F8F8CE72046FFF74BF9DC
S3150800438000F028FB86E72046FFF745F900F022FBF8
S315080043900020ADE704ED00E02DE9F05F07468A4608
S315080043A090461E463C465CB900BFA02080F31188A3
S315080043B0BFF34F8FBFF36F8F00BF00BF00BFFDE78E
S315080043C0BAF1000F01D1206C08B9012000E00020E5
S315080043D058B900BFA02080F31188BFF34F8FBFF3F1
S315080043E06F8F00BF00BF00BFFDE7022E02D1E06B52
S315080043F0012801D1012000E0002058B900BFA02003
S3150800440080F31188BFF34F8FBFF36F8F00BF00BFD4
S3150800441000BFFDE7FFF71EFB00BFA021EFF31180E9
S3150800442081F31188BFF34F8FBFF36F8F00BF054627
S31508004430A06BE16B884201D3022E23D194F945B0D3
S31508004440324651462046FEF71EFD0BF1010088B99B
S31508004450606A08B9012000E0002080B904F1240050
S3150800446000F06AFA58B1B8F1000F08D00120C8F870
S31508004470000004E00BF1010040B284F845004FF05B
S31508004480010901E04FF0000900BF85F3118800BF5C
S315080044904846BDE8F09F00002DE9F74183B0054680
S315080044A00E464FF000082C465CB900BFA02080F3EA
S315080044B01188BFF34F8FBFF36F8F00BF00BF00BFD8
S315080044C0FDE70EB9206C08B9012000E0002058B9B4
S315080044D000BFA02080F31188BFF34F8FBFF36F8F03
S315080044E000BF00BF00BFFDE700F006F908B9059850
S315080044F008B9012000E0002058B900BFA02080F3C9
S315080045001188BFF34F8FBFF36F8F00BF00BF00BF87
S31508004510FDE700BFFFF7F2F9A76BF7B13146204672
S31508004520FEF79CFC781EA063206908B9012000E00C
S31508004530002060B904F1100000F0FEF938B14FF020
S31508004540805030490860BFF34F8FBFF36F8FFFF776
S3150800455001FA012006B0BDE8F081059818B9FFF701
S31508004560F9F90020F6E7B8F1000F04D101A8FFF722
S3150800457073FB4FF00108FFF7EDF9FFF79BFCFFF718
S31508004580BDF994F94400401C10B9002084F8440091
S3150800459094F94500401C10B9002084F84500FFF73F
S315080045A0D9F905A901A800F02FF8F0B92046FEF7B9
S315080045B025FEA0B104F124000599FFF777FB2046F4
S315080045C0FFF729F800F006FA0028A3D14FF080502B
S315080045D00C490860BFF34F8FBFF36F8F9AE72046E9
S315080045E0FFF719F800F0F6F994E72046FFF713F8F5
S315080045F000F0F0F92046FEF701FE00288AD00020D8
S31508004600A8E7000004ED00E070B505460C465DB964
S3150800461000BFA02080F31188BFF34F8FBFF36F8FC1
S3150800462000BF00BF00BFFDE75CB900BFA02080F354
S315080046301188BFF34F8FBFF36F8F00BF00BF00BF56
S31508004640FDE7FFF75BF9124802686868131A2068E5
S31508004650401C08B9002617E00E49286809688842F0
S3150800466004D06868904201D801260DE02068984277
S3150800467007D92068C01A20602846FFF7EDFA0026F9
S3150800468002E0002020600126FFF764F9304670BD7D
S3150800469014000020280000202DE9FF4F85B0804631
S315080046A089461746DDE912ABB800FEF7F3FF064662
S315080046B056B15820FEF7EEFF04460CB1266304E017
S315080046C03046FFF767F900E000247CB10020CDE909
S315080046D000ABCDE902403A4649464046089BFEF7FC
S315080046E098FC2046FEF708FB012501E04FF0FF3550
S315080046F0284609B0BDE8F08F0549096809B90120BF
S3150800470005E00449096809B9022000E0002070475D
S315080047101C00002038000020014908687047000086
S31508004720140000202DE9F0414FF0000844480068C5
S31508004730002878D143480068451C424805601DBBDF
S3150800474041480068006808B9012000E0002058B90F
S3150800475000BFA02080F31188BFF34F8FBFF36F8F80
S3150800476000BF00BF00BFFDE7374807683748006845
S31508004770354908603548076035480068401C3449A3
S315080047800860FEF769FE00BF3248006885423CD3E0
S3150800479000BF2D480068006808B9012000E0002025
S315080047A020B14FF0FF302B4908602DE026480068FD
S315080047B0C068C4686668B54202D22648066023E027
S315080047C0201DFFF729F8A06A18B104F11800FFF7B1
S315080047D023F894F82C10012088401F4909680843DB
S315080047E01D490860E16A01EB81011C4A02EB810060
S315080047F0211DFFF777F81A49E06A0968C96A8842ED
S31508004800C7D34FF00108C4E700BF15480068C06A5F
S3150800481000EB8000114951F82000012801D94FF01A
S31508004820010805E0FFE70F480068401C0D490860CD
S315080048300D48006808B14FF001084046BDE8F08110
S315080048403800002014000020040000200800002082
S31508004850280000203000002018000020D800002082
S3150800486000000020200000202400002070B5054626
S315080048702C460026002D57D02C480068844201D1CA
S31508004880012000E0002058B900BFA02080F311885D
S31508004890BFF34F8FBFF36F8F00BF00BF00BFFDE7A9
S315080048A0E06C58B900BFA02080F31188BFF34F8F82
S315080048B0BFF36F8F00BF00BF00BFFDE7E06C401E6F
S315080048C0E064A16CE06A88422ED0E06C60BB201DD3
S315080048D0FEF7A2FF78B9E06A00EB8000144951F8A8
S315080048E0200040B994F82C10012088401149096825
S315080048F0814310480160A06CE062E06AC0F10800DC
S31508004900A06194F82C10012088400A4909680843D8
S3150800491008490860E16A01EB8101054A02EB81005A
S31508004920211DFEF7DFFF0126304670BD000000207E
S31508004930D80000201800002070B50646F068C46844
S315080049405CB900BFA02080F31188BFF34F8FBFF377
S315080049506F8F00BF00BF00BFFDE704F11800FEF728
S315080049605BFF16480068A8B9201DFEF755FF94F8A6
S315080049702C1001208840124909680843104908602C
S31508004980E16A01EB81010F4A02EB8100211DFEF766
S31508004990A9FF04E004F118010B48FEF7A3FF0B4931
S315080049A0E06A0968C96A884204D9012501200849CC
S315080049B0086000E00025284670BD00003800002089
S315080049C018000020D8000020A001002000000020C8
S315080049D02400002070B5002400263748006858B91E
S315080049E000BFA02080F31188BFF34F8FBFF36F8FEE
S315080049F000BF00BF00BFFDE7FEF780FF2E48006836
S31508004A00401E2D4908600846006800284FD12B48EB
S31508004A10006800284BD024E02948C068C46804F11F
S31508004A201800FEF7F9FE201DFEF7F6FE94F82C1086
S31508004A300120884023490968084322490860E16A39
S31508004A4001EB8101204A02EB8100211DFEF74AFF96
S31508004A501E49E06A0968C96A884202D301201C49CE
S31508004A6008601748006808B9012000E000200028FF
S31508004A70D2D00CB1FEF7F0FC1648056865B100BF48
S31508004A80FFF750FE10B10120114908606D1E002D78
S31508004A90F6D100200F4908600D48006838B1012694
S31508004AA030070D490860BFF34F8FBFF36F8FFEF7CE
S31508004AB051FF304670BD000038000020100000206D
S31508004AC0A001002018000020D800002000000020C7
S31508004AD0240000202000002004ED00E02DE9F0412C
S31508004AE00646002734465EB900BFA02080F3118829
S31508004AF0BFF34F8FBFF36F8F00BF00BF00BFFDE747
S31508004B00FEF7A8FF00BFA021EFF3118081F31188FB
S31508004B10BFF34F8FBFF36F8F00BF05462046FEF7E2
S31508004B203FFD20B315480068E0B91549E06A0968F1
S31508004B30C96A884200D30127201DFEF76DFE94F846
S31508004B402C10012088400F49096808430D49086060
S31508004B50E16A01EB81010C4A02EB8100211DFEF797
S31508004B60C1FE04E004F118010848FEF7BBFE00BFC9
S31508004B7085F3118800BF3846BDE8F081380000206B
S31508004B800000002018000020D8000020A001002006
S31508004B901CB50024FEF70CF90E48006858B10E48FB
S31508004BA0072100234FF48272CDE900100BA10D48AE
S31508004BB0FFF772FD04465CB900BFA02080F3118898
S31508004BC0BFF34F8FBFF36F8F00BF00BF00BFFDE776
S31508004BD020461CBD4400002048000020546D722069
S31508004BE053766300FD3500082DE9FE4304460D465D
S31508004BF016461F46DDF828804FF000095CB900BF4D
S31508004C00A02080F31188BFF34F8FBFF36F8F00BFCB
S31508004C1000BF00BFFDE71448006810B30095019671
S31508004C200294062D15DAFFF767FD022808D100233E
S31508004C30424669460C480068FFF7D6FA814610E0F6
S31508004C4000231A46694608480068FFF7CDFA8146E8
S31508004C5007E000233A46694603480068FFF79CFBCD
S31508004C6081464846BDE8FE83440000204FF0407068
S31508004C70E1EE100A70473A535444494E003A5354E9
S31508004C80444F5554003A53544445525200000000CC
S31508004C9000000000000102030406070809000000DE
S31508004CA00001020304000000C84C000800000020B0
S31508004CB098000000C4010008604D00089800002014
S31508004CC010AA0000E0010008000000000000000033
S31508004CD000000000000000000000000000000000C6
S31508004CE000000000000000000000000000000000B6
S31508004CF000000000000000000000000000000000A6
S31508004D000000000000000000000000000000000095
S31508004D100000000000000000000000000000000085
S31508004D200000000000000000000000000000000075
S31508004D30AAAAAAAA000000000000000000000000BD
S31508004D400000000000000000100000000100000044
S31508004D500024F4000000000000000000000000002D
S7050800018968
